:020000040800F2
:10000000300B00201902000821020008230200081A
:10001000250200082702000829020008000000004D
:100020000000000000000000000000002B0200089B
:100030002D020008000000002F0200083102000815
:1000400033020008330200083302000833020008BC
:1000500033020008330200083302000833020008AC
:10006000330200083302000833020008330200089C
:10007000330200083302000833020008330200088C
:10008000330200083302000833020008330200087C
:10009000330200083302000833020008330200086C
:1000A00033020008551C0008330200083302000820
:1000B000330200083302000833020008330200084C
:1000C000330200083302000833020008330200083C
:1000D00033020008330200084926000833020008F2
:1000E00033020008330200083302000800F002F86F
:1000F00000F082F80AA090E8000C82448344AAF140
:100100000107DA4501D100F077F8AFF2090EBAE83D
:100110000F0013F0010F18BFFB1A43F0010318473B
:10012000503100006031000000230024002500262B
:10013000103A28BF78C1FBD8520728BF30C148BF4A
:100140000B6070476E2900F0D381702900F0158391
:10015000662902F0BD87652902F0BA87672902F097
:10016000B787612902F0B68703681B0A28BF41F0F0
:100170008001692900F08081642900F07D81752962
:1001800000F07A816F2900F0A382782900F0E182E3
:10019000E92900F03D82E42900F03A82F52900F0D7
:1001A0003782EF2900F0A082F82900F0E08203688E
:1001B000DB0928BF41F08001632901F02580732904
:1001C00001F02A80E32901F03580F32901F03A801B
:1001D000002070471FB501F0D1F804000020002175
:1001E00002F04AFF401C60600020002102F05AFF2C
:1001F000E0601FBD10B510BD01F09BF81146FFF780
:10020000E9FF02F043FB01F07DF903B4FFF7F2FFD1
:1002100003BC01F081F90000094880470948004704
:10022000FEE7FEE7FEE7FEE7FEE7FEE7FEE7FEE7A6
:10023000FEE7FEE704480549054A064B7047000003
:10024000751B0008ED00000830050020300B002071
:1002500030070020300700200FB41CB5084B06AA59
:100260007B4469460090059800F05BF90446002045
:10027000694600F069F920461CBC5DF814FB0000DB
:10028000E502000070B5064600F090F804680546E7
:1002900030460A22002100F03FFB2C6070BD40EA8E
:1002A0000103024630B59B0710D14FF0013400E046
:1002B00008C208C91D1B9D4315EAC41FF8D013F0DE
:1002C000FF0102F8011B0DD01B0AF8E711F8013BF2
:1002D000002B02F8013B05D011F8013B002B02F87E
:1002E000013BF3D130BD10B5431C02E010F8011BF7
:1002F00071B18107FAD14FF0013202C88C1A8C43D8
:1003000014EAC211F9D0C01A0A0603D0C01E10BDEB
:10031000C01A10BD0A0401D0801E10BD0902FCD015
:10032000401E10BD4FF0013C50F8042B51F8043B27
:100330009A4221D1A2EB0C03934313EACC1317D1B9
:1003400050F8042B51F8043B9A4215D1A2EB0C0350
:10035000934313EACC130BD150F8042B51F8043B10
:100360009A4209D1A2EB0C03934313EACC13DBD0DE
:100370004FF00000704700BFD01A01BAB1FA81F106
:1003800001F0180122FA01F0CB40DBB2C0B2C01A72
:10039000C1F120012CFA01F3D11A914311EAC311E2
:1003A000E6D17047704770477047000000487047BB
:1003B0000000002070B5044685690068C10601D5BB
:1003C000302600E02026C00707D070BDD4E9012107
:1003D00030469047206A401C20626D1EF6D570BDE5
:1003E00070B5044685690078C00707D170BDD4E9AF
:1003F000012120209047206A401C20626D1EF6D506
:1004000070BD09684A0501D540B27047C905FCD5E1
:1004100000B2704709684A0501D5C0B27047C905E6
:10042000FCD580B2704770B50C460546012A05D050
:100430002878800600D5EA69002302E0012305E060
:100440005B1C934202D2E05C0028F9D1A869E6184F
:10045000C01AA861286A184428622846FFF7AAFF34
:1004600004E0D5E9012114F8010B9047B442F8D318
:100470002846FFF7B5FF70BD2DE9F0410646002480
:1004800010687529314616A510D0FFF7BAFF00286D
:1004900002DA404213A507E031688A0701D512A5A8
:1004A00002E0490704D511A5012401E0FFF7B2FFDE
:1004B00000210A2206F1240709E0B0FBF2FCB0FBA0
:1004C000F2F302FB1C00303078541846491C002817
:1004D000F3D123462A463046BDE8F04100F0A5BAE4
:1004E000000000002D0000002B0000002000000094
:1004F00011680268006A530501D508700AE0D30547
:1005000001D5088006E0130603D5C217C1E9000231
:1005100000E008600120704701694A1C0261087808
:10052000704700B58FB0CDE9013100210591054933
:100530007944CDE903101146684600F029F90FB05F
:1005400000BD0000E5FFFFFF0A6802F8010B0A602A
:10055000704700002DE9FF5F15468A460446DFF824
:10056000AC80F8440027D8E900103E46CDE90010E1
:1005700010E03AF816106A4602A800F0B6FE411CD8
:1005800007D02178890603D5E269391891420DD840
:100590000744761C2078800602D5E069B84205DD64
:1005A000AE42E6DB3AF816000028E2D1A069C01B93
:1005B000A0612046FFF7FEFED8E90010CDE900104B
:1005C000002017E03AF818106A4602A800F08DFEE5
:1005D000B0F1FF3F81460BD000250DF1080B05E07F
:1005E000D4E901211BF8050090476D1C4D45F7D358
:1005F00008F10100B0428046E4DB206A3844206202
:100600002046FFF7EDFEBDE8FF9F0000722B0000C3
:100610002DE9F0418046D21D22F007020025D2E9E3
:100620000002F52915A614D0011E72F1000106DAA8
:100630000023D0EB030063EB020211A608E0D8F818
:1006400000108B0701D50FA602E0490701D50EA6C1
:1006500001251146002408F1240704E000F0A0F968
:1006600030323A55641C50EA0102F7D12B4632462B
:1006700021464046BDE8F04100F0D7B90000000037
:100680002D0000002B0000002000000030B40021ED
:1006900000F1240408E002F00705D208303542EAF0
:1006A0004372DB086554491C52EA0305F3D1046820
:1006B000002310A2250708D504F020040C4304D021
:1006C000C46901230CA2641EC46130BC00F0ADB942
:1006D00010B5044621461068FFF79CFE02462046EE
:1006E000BDE810400023D1E7D21D22F00701D1E977
:1006F0000023CBE70000000030000000F0B40D46FE
:100700000188090502D5214C7C4402E01F4C7C4441
:100710000E34002100F1240608E002F00F07120950
:10072000E75D42EA03721B097754491C52EA03074A
:10073000F3D102780023120704D5702D06D009B139
:10074000022311342246F0BC00F06FB901231034AB
:10075000F8E770B504460D4621461068FFF75AFECB
:10076000024629462046BDE870400023C6E7D21D58
:1007700022F00703D3E90023C0E70368126843F0BF
:10078000200303600823C3610023B7E7D4290000D6
:100790002DE9F05F894604464FF0000ADFF874B196
:1007A000FB44C0F820A02046E1688847002874D0A8
:1007B000252806D0D4E901219047206A401C2062F8
:1007C000F1E700265F462046E16888472028054675
:1007D00007DB312D05D2781910F8200C08B106433B
:1007E000F1E7B00701D526F00406C4F81CA00027E5
:1007F000C4F818A02A2D09D0284602F035FC38B3D9
:1008000004EB8708303DC8F8185019E059F8041B6C
:10081000204604EB87029161E1688847012F054675
:1008200018D1E069002820DA26F020061DE0D8F86B
:10083000180000EB800005EB40003038C8F81800C5
:100840002046E1688847054602F00EFC0028EED1FC
:10085000012F0AD02E2D08D12046E16888477F1C41
:100860000546022F46F02006C4DBA069002803DA03
:10087000404246F00106A061F00701D026F01006C4
:100880006C2D0BD0682D09D04C2D39D06A2D35D068
:10089000742D35D07A2D33D016E038E0E1682F463C
:1008A00020468847B842054609D16C2F26D04FF420
:1008B0008060E168064320468847054604E06C2FC7
:1008C0001AD04FF4807006430DB3A5F141001928EA
:1008D00002D8203546F400664A462946204626605E
:1008E0004E46FFF72FFC80B101280BD0F61D26F0F5
:1008F000070000F1080956E74020E4E78020D8E728
:100900000020D6E706F104094DE7284652E7206AA1
:10091000BDE8F09F642900002DE9F04791460F469D
:1009200080460446002614F8015B2DB100F030F833
:100930000068405DC007F6D12B2D02D02D2D18D0B8
:10094000641E4A463946204600F080FC27B13968CB
:10095000A14201D1C7F800804FF0020471050BD508
:100960004042002803DDFFF721FD0460A007BDE839
:10097000F08746F48066E4E70028F8DAFFF716FD12
:1009800004606FF00040F2E700487047000000206C
:1009900010B500F0F3FC001D10BD00BFDD26000007
:1009A00030B5B0F10A0271F100034FEA900E4EEA41
:1009B000817EB0EB0E0061EB91014FEA101E4EEA12
:1009C000017E10EB0E0041EB11114FEA102E4EEAA2
:1009D000016E10EB0E0041EB11214FEA104E4EEA72
:1009E000014E10EB0E0041EB1141401841F10001A6
:1009F0004FEAD00040EA41704FEAD1014FEA81044A
:100A000044EA907410EB800544EB01046D1944EB4B
:100A10000404521BA3414FF0000348BF0A3200D523
:100A200030BD401C41F1000130BD2DE9F0470D46BD
:100A300099469246044600F124080168880604D5C8
:100A4000E06921F01001216000E00120A84201DDF1
:100A5000471B00E00027A1697A1902EB0900081A78
:100A6000A0612078C00602D42046FFF7A3FC002630
:100A700008E0D4E901211AF806009047206A401CDA
:100A8000761C20624E45F4DB2078C0060AD520464D
:100A9000FFF790FC06E0D4E9012130209047206A5E
:100AA000401C2062381EA7F10107F4DC07E0D4E9FE
:100AB000012118F805009047206A401C2062281E7A
:100AC000A5F10105F3DC2046FFF78AFC207800063B
:100AD00002D50220BDE8F0870120FBE72DE9FF4F9A
:100AE0000C461E464FF0FF378BB0D2E90001DDF80F
:100AF00060800A908A46C1F30A5505B93D46002137
:100B000008464FF00000BAF1000F00F4400005DA8B
:100B100000EB80004FF4400101EA50004FEA905989
:100B2000B9F1010F00DDB9460A9850EA4A000ED02B
:100B300044F61050A5F2FF3545432F14B8F1000FCD
:100B40001ED07542291E1EDDC9F100021CE0B8F15D
:100B5000010F4FF0000001D0302103E0F24305E027
:100B60002154401CB042FBDB3046002200212154BE
:100B70000B99C1F80880C1E900200FB0BDE8F08FE3
:100B8000BD1B6D1CDEE74A4600DA694206A800F08C
:100B900047FC06AB93E8070003AB83E80700504629
:100BA0000A9901F085FE8DE80700A0F500501F3876
:100BB00000900398002D0ADD42F21F014A460844C6
:100BC000002303A90390684602F0EEF809E0A0F5BF
:100BD00000504A461F38002303A90390684602F0DC
:100BE000F8F88DE807000004000C03D04FF0FF3048
:100BF000410800E01046B8F1000F03D00022009237
:100C000015461EE0751E05D4FFF7CAFE3032625548
:100C10006D1EF9D5B3460122084302D000227F1C85
:100C200004E02078302801D100227F1E002A099795
:100C300084D01DE0112D07DAFFF7B2FE3032625585
:100C40006D1C50EA0102F5D1084302D00098C8B1EA
:100C50000EE00021681E05E0235C625C63542254B0
:100C6000401E491C8142F7DBAB46A81B401E099081
:100C7000002004F80B000B98099AC0F80880C0E91E
:100C8000002B7AE711264FF0000857E72DE9F04FC7
:100C900088460446D21D22F0070191B0D1E9000137
:100CA000CDE90A0102F0CCF902460B98C00F01D041
:100CB0002D2007E02068810701D52B2002E02021AC
:100CC00001EAC000032A099001D0072A05DB034688
:100CD0004146204600F056FB0BE12078800601D506
:100CE000E06900E00620B8F1650F814606D0B8F152
:100CF000660F18D0B8F1670F70D131E00020B9F15C
:100D0000110F009001DB112301E009F101030AAA90
:100D100001A90CA8FFF7E2FEDDE90C70002609F13D
:100D20000105834647E001204B4600904FF0004705
:100D30000AAA01A90CA8FFF7D1FEDDE90DB00C99B4
:100D40005D46002610B909F101000D18B9EB050048
:100D500003D4C0F1FF3609F10105A5EB09002BE032
:100D6000B9F1010F01DA4FF001090020B9F1110FBB
:100D70000090484601DD112300E003460AAA01A9BC
:100D80000CA8FFF7ABFEDDE90C704D46002683464C
:100D9000207800070AD4AB4500DA5D4601A8012D92
:100DA00004DD411911F8011C302907D04F4502DA42
:100DB00017F1040F04DA012082460FE06D1EEEE702
:100DC000002F02DCED1B3E4403E0781CA84200DD4E
:100DD0007D1CB81B00F1010A4FF000472078000786
:100DE00003D4AA4501DB4FF0FF3A0021B7F1004FD1
:100DF0000DF143088DF8431024D002202B23002F3F
:100E000001DA7F422D230A21021EA0F1010000DC3D
:100E10005FB197FBF1FC97FBF1F201FB1C7C1746DD
:100E20000CF1300C08F801CDEEE7A8F101000370D9
:100E30002188090501D5452100E06521A0F10108BF
:100E400000F8011C09980FA9A1EB0807FF1D00B1CC
:100E50000120411901EBEA70A1693844081A401ECB
:100E6000A0612078C00602D42046FFF7A3FA0998B3
:100E700028B1D4E901219047206A401C20622078E3
:100E8000C00622D52046FFF795FA1EE0002E04DBAF
:100E9000B34502DD01A8805D00E03020D4E90121E6
:100EA0009047206A401C2062761CAAF101005FEA8C
:100EB000000A0AD100F062FAC0680168405CD4E917
:100EC00001219047206A401C2062281EA5F10105DF
:100ED000DCDC07E0D4E9012118F8010B9047206A17
:100EE000401C2062381EA7F10107F3DC2046FFF703
:100EF00077FA032011B041E62DE9F04F04460D4684
:100F0000D21D22F0070089B0D0E900974846394643
:100F100002F096F80246F80F01D02D2307E0206872
:100F2000810701D52B2302E0202101EAC0038DF8BF
:100F300020300BB1012000E00020032A824601D0BE
:100F4000072A04DB2946204600F01CFA3FE12078FE
:100F5000800601D40D2500E0E569C7F30A560D2D82
:100F600049DA00214FEA175B08464FF00000002FD6
:100F700000F4400007DA00EB80004FF4400100EB82
:100F8000D07001EA60008115012901DD4FF0FF31C9
:100F900000224FEA850CBCF1180F06D31346ACF1C2
:100FA00018004FF08052C24003E04FF4801323FA40
:100FB0000CF30CF10C0CBCF1200F04D3ACF1200CA1
:100FC00009FA0CF001E007FA0CF000294FF0004894
:100FD00001DD18B90FE00ED140450CD319EB020921
:100FE0005F4121B9404502D19F4329EA0209BBEB89
:100FF000175F00D0761C2088000502D57B48784416
:1010000002E07A487844193808AA302302F80A30F6
:10101000037C0AF10101002E0AF1020A53546A46C8
:1010200002DC4FF0300101E04FF031014FF00108D8
:101030008DF8001002D0A6F2FF3603E059EA47010E
:1010400000D06B4E002D02DC2178090704D54FF04B
:1010500002082E218DF80110C44600210BE0C7F3D1
:1010600003433F01C35C491C6D1E02F8083005298B
:1010700008F1010801DA002DF1DC00210CE000EBA1
:101080001973491C1B786D1E082902F808304FEAB5
:10109000091908F1010801DA002DF0DC21688B063E
:1010A00002D516E0A8F10108E04505DD02EB0803D2
:1010B00013F8013C302BF5D0B8F1000F09DD02EB3D
:1010C000080313F8013C2E2B03D1090701D4A8F122
:1010D0000108002D05DD3E2102F808106D1E08F103
:1010E0000108407C002E02F8080008F1010804DA2B
:1010F0002D20764202F8080002E02B2002F80800BA
:101100000A214FF47A70864208F101080BDB96FB46
:10111000F0F3303302F8083096FBF0F308F10108E1
:1011200000FB136601E0642E0CDB642096FBF0F3F9
:10113000303302F8083096FBF0F308F1010800FBA9
:10114000136601E00A2E06DB96FBF1F0303002F860
:10115000080008F1010896FBF1F001FB1060303047
:1011600002F80800A16908F1010808EB050202EB8A
:101170000A00081AA0612078C00602D42046FFF7B2
:1011800019F9216A08AE01EB0A00206204E0D4E9F3
:10119000012116F8010B9047BAF1010AF7D2207825
:1011A000C00602D52046FFF705F96E4609E016F89D
:1011B000010B3E280FD0D4E901219047206A401C42
:1011C0002062B8F10108F2D22046FFF709F909B010
:1011D0000320BDE8F08F206A2844206203E0D4E9B0
:1011E0000121302090476D1EEBD3F8E72A21000043
:1011F00002FCFFFF10B5436913B1AFF3008001E0BB
:10120000FFF711F9012010BD127800F124010A70D6
:1012100000224A700122EDE711684FF0FF32E9E742
:1012200010B5436913B1AFF3008001E0FFF792F905
:10123000012010BD128800F1240182840022C284A2
:101240000122EDE711684FF0FF32E9E72DE9F05F89
:10125000824615468B4600270AF10104B9460078FC
:10126000302801D09DB113E014F8010B0127782834
:1012700003D0582801D045B10AE00DB1102D07D197
:10128000002714F8010B102502E0082500E00A25CC
:101290000026B0460EE005FB080005FB06F101271D
:1012A0001FFA80F801EB1046B6F5803F00D3B9462F
:1012B00014F8010B294600F0A5F80028EBDABBF181
:1012C000000F05D00FB1641E00E05446CBF800407B
:1012D000B9F1000F06D0FFF769F802210160C81EBE
:1012E000BDE8F09F48EA0640FAE72DE9F0411646CE
:1012F0000C460546FFF74CFB036893F801010128F3
:1013000007D0FF2C12D8185D80B101202C70BDE8E9
:10131000F081D3F807013246214603F20713C718BC
:101320002846BC46BDE8F041002360474FF0FF303F
:10133000EDE77546FFF728FBAE46050069465346C4
:1013400020F00700854618B020B5FEF773FFBDE812
:1013500020404FF000064FF000074FF000084FF01C
:10136000000BAC46ACE8C009ACE8C009ACE8C00969
:10137000ACE8C00921F007018D467047004870476E
:10138000200000202DE9F0411F4604460326016895
:10139000072A01F4006004DB08B116A505E016A5D4
:1013A00003E008B115A500E015A521F010002060AC
:1013B000A069C01EA0610FB1401EA0612046FEF7CB
:1013C000F9FF4FB1D4E9012138469047206A401C0B
:1013D0002062C01C206206E0206AFAE7D4E90121FD
:1013E00015F8010B9047761EF8D22046FEF7F8FF5D
:1013F000BDE8F0814E414E006E616E00494E4600E0
:10140000696E66003A2800D2303820F02002412A66
:1014100001D3A2F13700884201D34FF0FF3070476B
:101420002DE9F047814616468AB0354878440DC804
:101430008DE80D0032487844801C03AC0DC884E868
:101440000D0041F69B300844372190FBF1F290FBF0
:10145000F1F5A5F1800501FB12041B3C02D56442A5
:10146000012000E00020DFF898A080460027FA4421
:10147000AAF1BE0A0EE0E0070AD03246684607EB42
:10148000470101230AEB810101F0A3FC8DE807006D
:1014900064107F1C002CEED1194F7F44AE3F19E041
:1014A000E80715D007EB04100DF1180A90E80E00BC
:1014B0008AE80E00C068F04201D1981908903246BF
:1014C000012306A903A801F084FC03AB83E807000D
:1014D0006D10641C002DE3D14FF0010332466946C4
:1014E000B8F1000F03A802D001F05EFC01E001F0AA
:1014F00070FCC9E90001C9F808200AB0BDE8F0870E
:101500008C1D000010B50446AFF300802046BDE8F6
:101510001040FEF77ABE000001491820ABBEFEE77E
:10152000260002007047000080B584B0039000F0F0
:1015300043F8039800F0010200210191084600F0F1
:10154000D7F801980399C1F340020121029100F0FC
:10155000CFF802980399C1F380020C2100F0C8F87B
:1015600002980399C1F3C0020D2100F0C1F801985F
:101570000399C1F30012042100F0BAF8019803990D
:10158000C1F34012052100F0B3F801980399C1F3AB
:101590008012062100F0ACF801980399C1F3C01243
:1015A000072100F0A5F802980399C1F300220B214E
:1015B00000F09EF804B080BD83B041F21800C4F280
:1015C000020002900299086840F00C00086040F6A2
:1015D0000000C4F2010001900199487800020860FF
:1015E000019908681122C1F211121043086040F6F7
:1015F0000440C4F201000090009908686FF31730AE
:1016000008600099086841F20002C0F2110210431C
:10161000086003B07047000082B041F20000C4F2DD
:101620000200019041F20400C4F20200009001990E
:10163000086840F480300860FFE7012008B9FFE740
:10164000FBE70099086840F00100086002B07047AD
:1016500082B041F21800C4F20200019001990868BA
:1016600040F00400086040F60400C4F2010000905D
:101670000099086840F6FF72C0F6F07210400860EA
:101680000099086841F20002C1F2010210430860AB
:1016900002B0704784B08DF80B00ADF808109DF8CB
:1016A0000B0070B9FFE740F60800C4F2010001909A
:1016B00001980068BDF80810C84000F001000390D0
:1016C00013E09DF80B0001280ED1FFE740F608401B
:1016D000C4F20100009000980068BDF80810C840EE
:1016E00000F00100039000E0FFE7039804B07047AA
:1016F00084B08DF80F00ADF80C10ADF80A209DF8FD
:101700000F00F8B9FFE740F60C00C4F201000190A9
:10171000BDF80A0001280AD1FFE7BDF80C1001202E
:1017200000FA01F2019908681043086009E0BDF869
:101730000C10012000FA01F201990868904308603A
:10174000FFE724E09DF80F0001281FD1FFE740F6D6
:101750000C40C4F201000090BDF80A0001280AD133
:10176000FFE7BDF80C10012000FA01F200990868AB
:101770001043086009E0BDF80C10012000FA01F2E6
:101780000099086890430860FFE7FFE7FFE704B0AF
:101790007047000084B041F21800C4F202000390C8
:1017A0000399086840F00C00086040F60400C4F299
:1017B000010002900299086840F6FF7290430860A9
:1017C0000299086840F244421043086040F6004025
:1017D000C4F2010001900199086820F0FF00086040
:1017E0000199086840F04400086040F60440C4F2E3
:1017F00001000090009908684FF2FF02C0F2FF025A
:10180000104008600099086840F20042C4F20042AB
:101810001043086004B0704784B041F21800C4F26D
:10182000020003900399086840F00C00086040F63D
:101830000400C4F2010002900299086840F6FF72A9
:10184000904308600299086840F211121043086042
:1018500040F60040C4F2010001900199086820F0B0
:10186000FF0008600199086840F01100086040F628
:101870000440C4F201000090009908684FF2FF0292
:10188000C0F2FF02104008600099086840F20012A0
:10189000C1F200121043086004B0704780B58AB0EE
:1018A000FFF778FF012004900A210791FFF7F2FE6D
:1018B000049900F0010000900846FFF7EBFE009944
:1018C0000246049802F0010241EA4201019100211E
:1018D0000891FFF7DFFE01990246089802F0010225
:1018E00041EA820102910821FFF7D4FE02990246E3
:1018F000049802F0010241EAC20103910F21FFF7AF
:10190000C9FE03990246049802F0010241EA02115D
:1019100005910E21FFF7BEFE05990246089802F0D8
:10192000010241EA421106910921FFF7B3FE069A2E
:1019300007990346089803F0010302EB831209920A
:10194000FFF7A8FE0146099800EBC11140F2E10043
:10195000C2F20000017000780AB080BD80B582B08C
:101960000190FFF717FF0198FFF7DEFD00200090C0
:101970000C210122FFF7BCFE009A0B211046FFF755
:10198000B7FE02B080BD000080B58AB0012004908F
:101990000A210791FFF77EFE049900F001000090F4
:1019A0000846FFF777FE00990246049802F001020C
:1019B00041EA4201019100210891FFF76BFE019974
:1019C0000246089802F0010241EA820102910821D0
:1019D000FFF760FE02990246049802F0010241EA14
:1019E000C20103910F21FFF755FE039902460498A7
:1019F00002F0010241EA021105910E21FFF74AFEB1
:101A000005990246089802F0010241EA4211069146
:101A10000921FFF73FFE069A07990346089803F04D
:101A2000010302EB83120992FFF734FE0146099885
:101A300001F0010100EBC11140F2E410C2F200001C
:101A4000016000680AB080BD80B500F001F880BD7B
:101A500084B000200390029041F20001C4F2020120
:101A6000086840F480300860FFE741F20000C4F2EB
:101A70000200006800F400300290039801300390E7
:101A8000FFE702990020019039B9FFE70398B0F50C
:101A9000A06018BF01200190FFE70198C00700284F
:101AA000E3D1FFE741F20000C4F2020000688003C6
:101AB000002803D5FFE70120029002E000200290F9
:101AC000FFE70298012851D1FFE742F20001C4F27A
:101AD0000201086840F010000860086820F0070064
:101AE0000860086840F00200086041F20401C4F296
:101AF000020100910868086008680860086840F4FE
:101B000080600860086820F47C100860086840F471
:101B1000E810086041F20001C4F20201086840F0D8
:101B200080700860FFE741F20000C4F20200006824
:101B30008001002801D4FFE7F5E741F20401C4F277
:101B40000201086820F003000860086840F0020005
:101B50000860FFE741F20400C4F20200006800F0F0
:101B60000C00082801D0FFE7F4E700E0FFE704B02D
:101B70007047000080B541F20002C4F20202106812
:101B800040F00100106041F20401C4F20201086853
:101B90000023CFF6FF031840086010684FF6FF736C
:101BA000CFF6F66318401060106820F480201060B3
:101BB000086820F4FE00086041F20801C4F2020146
:101BC0004FF41F000860FFF73FFF4EF60851CEF2BA
:101BD00000014FF00060086080BD000086B041F257
:101BE0001800C4F2020005900599086840F40060EE
:101BF000086042F62840C4F20100049042F62C40EE
:101C0000C4F20100039042F60040C4F201000290C9
:101C100042F60C40C4F2010001904EF20010CEF2E8
:101C20000000009004990F200860039940F2E7300B
:101C300008600299088840F001000880009908684F
:101C400040F0007008600199088840F001000880A9
:101C500006B0704781B040F22C51C2F20001086812
:101C60000130086042F61040C4F201000090009973
:101C7000088820F00100088001B0704781B0009012
:101C800040F22C51C2F2000100200860FFE740F250
:101C90002C50C2F2000000680099884201DAFFE788
:101CA000F5E701B07047000087B041F21800C4F2B8
:101CB0000200069041F21C00C4F202000590069951
:101CC000086840F0040008600599086840F4003096
:101CD000086040F60000C4F201000490049908680E
:101CE00020F47F4008600499086840F4924008603E
:101CF0000420C4F2010003900399086820F0080052
:101D0000086044F20840C4F200000290029940F6D4
:101D1000A660086044F20C40C4F2000001900199F2
:101D2000086842F22C02104308604EF20410CEF212
:101D3000000000900099086840F04000086007B07B
:101D40007047000080B590B040F2A640C2F200009B
:101D500043F23621C0F60001FEF7E4FA00287AD1FA
:101D6000FFE70A2000F0ECF943F20D20C0F6000076
:101D70000C2100F009FA40F22851C2F200010020C3
:101D8000086040F2A640C2F2000043F26D21C0F6A6
:101D90000001FEF784FAFFE740F22850C2F200008B
:101DA000016840F2A640C2F20000405C2A2801D03F
:101DB000FFE7F1E700200F90FFE70F9840F228516E
:101DC000C2F2000109680139884210DAFFE70F9A70
:101DD00040F2A640C2F20000805C40F26001C2F214
:101DE00000018854FFE70F9801300F90E5E740F2BB
:101DF0006000C2F200000790FEF775FA01460798EE
:101E000000F0C2F90798FEF73DFAFFF7A7FD0A2098
:101E1000099000F095F940F22851C2F2000100202B
:101E20000860FFF7B1FD0E900E9A40F29C40C2F29E
:101E30000000089043F21A21C0F60001FEF70CFAE8
:101E40000898FEF750FA0146089800F09DF90998A5
:101E500000F076F9FFE740F2A640C2F2000043F23C
:101E60004F21C0F60001FEF75DFA00286FD1FFE7B1
:101E70000A2000F065F943F20D20C0F600000C21A5
:101E800000F082F940F22851C2F2000100200860FF
:101E900040F2A640C2F2000043F26D21C0F60001FC
:101EA000FEF7FDF9FFE740F22850C2F2000001689A
:101EB00040F2A640C2F20000405C2A2801D0FFE7B1
:101EC000F1E700200D90FFE70D9840F22851C2F293
:101ED000000109680139884210DAFFE70D9A40F2E3
:101EE000A640C2F20000805C40F26001C2F2000134
:101EF0008854FFE70D9801300D90E5E740F260004F
:101F0000C2F200000590FEF7EEF90146059800F0D8
:101F10003BF90598FEF7B6F9FFF720FD0A20069079
:101F200000F00EF940F22851C2F2000100200860D2
:101F3000FFF7B4FC014640F2E000C2F2000001707D
:101F4000007800F0FDF8069800F0FAF8FFE740F29C
:101F5000A640C2F2000043F21D21C0F60001FEF7C8
:101F6000E1F9002840F0EA80FFE70A2000F0E8F8F5
:101F700043F20D20C0F600000C2100F005F940F2FC
:101F80002851C2F200010020086040F2A640C2F2CF
:101F9000000043F26D21C0F60001FEF780F9FFE773
:101FA00040F22850C2F20000016840F2A640C2F29E
:101FB0000000405C2A2801D0FFE7F1E700200C90E8
:101FC000FFE70C9840F22851C2F20001096801397C
:101FD000884210DAFFE70C9A40F2A640C2F20000F5
:101FE000805C40F26001C2F200018854FFE70C9867
:101FF00001300C90E5E740F26000C2F2000004906E
:10200000FEF771F90146049800F0BEF80A2000F0CE
:1020100097F843F2E310C0F60000082100F0B4F88E
:1020200040F22851C2F200010020086040F2A640B0
:10203000C2F2000043F26D21C0F60001FEF72FF955
:10204000FFE740F22850C2F20000016840F2A640CB
:10205000C2F20000405C2E2801D0FFE7F1E700202B
:102060000B90FFE70B9840F22851C2F2000109687B
:102070000139884210DAFFE70B9A40F2A640C2F21B
:102080000000805C40F2E201C2F200018854FFE7E8
:102090000B9801300B90E5E740F2E200C2F200003D
:1020A0000290FEF720F90146029800F06DF840F228
:1020B0002851C2F200010020039008600A2000F0BD
:1020C0003FF803980A90FFE70A98019040F2E20077
:1020D000C2F20000FEF7D6F80146019888421EDAE7
:1020E000FFE740F26000C2F20000FEF7CBF80A9969
:1020F0000844FFF733FCFFF7D1FB014640F2E00054
:10210000C2F20000017000780A9A40F26821C2F21F
:1021100000018854FFE70A9801300A90D4E740F2A2
:102120006820C2F200000090FEF7DDF8014600983A
:1021300000F02AF80A2000F003F8FFE710B080BD95
:1021400083B08DF80B0044F20440C4F2000001900B
:1021500044F20040C4F200000090FFE700980078CD
:102160000006002801D4FFE7F8E79DF80B0001996D
:102170000860FFE7009800688009C00708B1FFE722
:10218000F8E703B07047000080B584B00390029177
:1021900000200190FFE70198029988420ADAFFE7E0
:1021A00003980199405CFFF7CBFFFFE701980130EE
:1021B0000190F0E704B080BD80B58EB040F2A6403B
:1021C000C2F2000043F24221C0F60001FEF7AAF875
:1021D000002840F0C380FFE70A20FFF7B1FF43F279
:1021E000EC10C0F600000E21FFF7CEFF40F22851A0
:1021F000C2F200010020086040F2A640C2F20000D6
:1022000043F26D21C0F60001FEF749F8FFE740F206
:102210002850C2F20000016840F2A640C2F200005D
:10222000405C2E2801D0FFE7F1E700200D90FFE78A
:102230000D9840F22851C2F2000109680139884224
:1022400010DAFFE70D9A40F2A640C2F20000805C6F
:1022500040F26211C2F200018854FFE70D9801308C
:102260000D90E5E740F26210C2F200000890FEF720
:102270003AF801460898FFF787FF0A20FFF760FF4A
:1022800043F20D20C0F600000C21FFF77DFF40F265
:102290002851C2F200010020086040F2A640C2F2BC
:1022A000000043F26D21C0F60001FDF7F8FFFFE7E3
:1022B00040F22850C2F20000016840F2A640C2F28B
:1022C0000000405C2A2801D0FFE7F1E700200C90D5
:1022D000FFE70C9840F22851C2F200010968013969
:1022E000884210DAFFE70C9A40F2A640C2F20000E2
:1022F000805C40F26001C2F200018854FFE70C9854
:1023000001300C90E5E740F26000C2F20000069058
:10231000FDF7E9FF01460698FFF736FF40F262102D
:10232000C2F20000FDF7AEFF014606980791FDF7E7
:10233000A9FF01460798C0B200F00EFA0A20FFF785
:10234000FFFE40F22851C2F20001002008600A6836
:1023500040F2A641C2F200018854FFE740F2A640D5
:10236000C2F2000043F25E21C0F60001FDF7DAFF81
:10237000002840F09D80FFE70A20FFF7E1FE43F2CE
:10238000FB10C0F600001121FFF7FEFE40F22851BD
:10239000C2F200010020086040F2A640C2F2000034
:1023A00043F26D21C0F60001FDF779FFFFE740F22F
:1023B0002850C2F20000006808B9FFE7F7E740F2D2
:1023C000A640C2F200000590017840F2E000C2F29F
:1023D000000001700078FFF7B3FE0A20FFF7B0FE9F
:1023E00043F20D20C0F600000C21FFF7CDFE05984A
:1023F00040F22852C2F200020021116043F26D2126
:10240000C0F60001FDF74BFFFFE740F22850C2F293
:102410000000016840F2A640C2F20000405C2A2899
:1024200001D0FFE7F1E700200B90FFE70B9840F2A7
:102430002851C2F2000109680139884210DAFFE729
:102440000B9A40F2A640C2F20000805C40F26001AC
:10245000C2F200018854FFE70B9801300B90E5E7CA
:1024600040F26000C2F200000390FDF73CFF01461D
:102470000398FFF789FE039840F2E001C2F20001E1
:1024800009780491FDF7FEFE0146049800F0F4F887
:102490000A20FFF755FE40F22851C2F20001002049
:1024A00008600A6840F2A641C2F200018854FFE7C2
:1024B00040F2A640C2F2000043F22921C0F600011A
:1024C000FDF730FF002840F0BD80FFE70A20FFF74E
:1024D00037FE43F2D410C0F600000E21FFF754FE81
:1024E00040F22851C2F200010020086040F2A640EC
:1024F000C2F2000043F26D21C0F60001FDF7CFFEED
:10250000FFE740F22850C2F20000016840F2A64006
:10251000C2F20000405C2E2801D0FFE7F1E7002066
:102520000A90FFE70A9840F22851C2F200010968B8
:10253000884210DAFFE70A9A40F2A640C2F2000091
:10254000805C40F2E811C2F200018854FFE70A986B
:1025500001300A90E6E740F2E810C2F20000029073
:10256000FDF7C1FE014602980139FFF70DFE0A2072
:10257000FFF7E6FD43F20D20C0F600000C21FFF747
:1025800003FE40F22851C2F200010020086040F230
:10259000A640C2F2000043F26D21C0F60001FDF733
:1025A0007EFEFFE740F22850C2F20000016840F2D0
:1025B000A640C2F20000405C2A2801D0FFE7F1E704
:1025C00000200990FFE7099840F22851C2F200016B
:1025D00009680139884210DAFFE7099A40F2A640FB
:1025E000C2F20000805C40F26001C2F20001885437
:1025F000FFE7099801300990E5E740F26000C2F278
:1026000000000190FDF76FFE01460198FFF7BCFD49
:102610000198FDF737FE014640F2E810C2F20000D3
:1026200000F00AF90A20FFF78BFD40F22851C2F2B0
:102630000001002008600A6840F2A641C2F20001D1
:102640008854FFE70EB080BD81B044F20440C4F26C
:10265000000000900098006840F22851C2F200018A
:102660000B6840F2A642C2F20002D0540868013062
:10267000086001B07047000080B586B08DF8170083
:102680000491FFF7C9F89DF8170000F0010201203E
:1026900002900A210391FFF72BF802999DF8170089
:1026A000C0F340020846FFF723F802989DF8171080
:1026B000C1F3800200210091FFF71AF800989DF8FD
:1026C0001710C1F3C0020821FFF712F802989DF815
:1026D0001710C1F300120F21FFF70AF802989DF8B6
:1026E0001710C1F340120E21FFF702F800989DF871
:1026F0001710C1F380120921FEF7FAFF0098039921
:102700009DF81720D209FEF7F3FF0498FEF70CFF9F
:102710000398FFF7B3FA0098029A0B21FEF7E8FF3F
:102720000098029A0C210191FEF7E2FF0398FFF74F
:10273000A5FA009A01991046FEF7DAFF0520FFF787
:102740009DFA00980199029AFEF7D2FF0398FFF7CD
:1027500095FA06B080BD000080B586B08DF81700F0
:102760000491FFF759F89DF8170000F001020120CD
:1027700002900A210391FEF7BBFF02999DF8170012
:10278000C0F340020846FEF7B3FF02989DF8171009
:10279000C1F3800200210091FEF7AAFF00989DF886
:1027A0001710C1F3C0020821FEF7A2FF02989DF89E
:1027B0001710C1F300120F21FEF79AFF02989DF83F
:1027C0001710C1F340120E21FEF792FF00989DF8FA
:1027D0001710C1F380120921FEF78AFF00980399B0
:1027E0009DF81720D209FEF783FF0498FEF79CFEA0
:1027F0000398FFF743FA0098029A0B21FEF778FF3F
:102800000098029A0C210191FEF772FF0398FFF7DE
:1028100035FA009A01991046FEF76AFF0520FFF786
:102820002DFA00980199029AFEF762FF0398FFF7CC
:1028300025FA06B080BD000080B584B003900291F7
:10284000FEF7EAFF00200190FFE70198009003984F
:10285000FDF749FD0146009888420ED2FFE7039834
:102860000199405C0299FFF707FF0298013002903E
:10287000FFE7019801300190E7E7029840F29C21C0
:10288000C2F2000141F8200004B080BD80B582B0E2
:1028900000200190FEF7C0FEFFF7A0F9FFF704FA51
:1028A000FEF7D6FEFFE7FFF787FCFFF74BFAFAE7E4
:1028B0005FEA400C08BF91F0000F4FEA8C234FEA0B
:1028C000C12243EA51514FEA1C5018BF00F5F040B5
:1028D0004FEA300018BF41F000415FEA6C5C00F045
:1028E0002980BCF1FF3F08BF40F080407047130CC7
:1028F00006BF12044FF0100C4FF0000C130E04BF73
:1029000012020CF1080C130F04BF12010CF1040C9D
:10291000930F04BF92000CF1020CD30F04BF5200BE
:102920000CF1010C11464FF00002A0F11F00A0EBCA
:102930000C00704711F0004F08BF704731F00041A4
:102940003FF4D5AF0B0C06BF09044FF0100C4FF04D
:10295000000C0B0E04BF09020CF1080C0B0F04BF96
:1029600009010CF1040C8B0F04BF89000CF1020C5F
:10297000CB0F04BF49000CF1010CCCF1200322FA6B
:1029800003F341EA030102FA0CF2A0EB0C0000F1A0
:102990000100704723F07F4720F07F4C80EA03005E
:1029A00000F00040ACEB070303F57C5303F1FF0399
:1029B0002DE9804909B44FEA144324EA03484FEA59
:1029C000154B25EA0B4E0FF2042606EB13273E7833
:1029D00003FB0667C7F5000707FB06F64FEAD64676
:1029E00006F102064FEA543707FB066CCCF1005C97
:1029F0004FEA1C472CEA074C0CFB06F507FB06F4D4
:102A000004EB15464FEA961649085FEA320234BFD6
:102A100000204FF000404FEAD13706FB07FC4FEA99
:102A20001C4C0CFB0BF7D21B03FB0CF761EB0701F3
:102A30000CFB0EF7B0EB074072EB17420CFB08F7EC
:102A400034BFA2EB0742B2EB074261EB17414FEAFA
:102A50000C444FEA910706FB07FC4FEA1C4C0CFBA9
:102A60000BF7B0EBC74072EB573203FB0CF734BFE8
:102A7000A2EBC742B2EBC74261EB57310CFB0EF73A
:102A8000B0EBC70072EB57720CFB08F734BFA2EB38
:102A9000C702B2EBC70261EB57714FEA816141EAAD
:102AA00092114FEA826242EA90124FEA806004EB90
:102AB000CC04039F4FEAD13706FB07FC4FEA1C4CBE
:102AC0000CFB0BF7D21B03FB0CF761EB07010CFBB4
:102AD0000EF7B0EB074072EB17420CFB08F734BF60
:102AE000A2EB0742B2EB074261EB17414FEA8C556C
:102AF00004EB9C244FEA910706FB07FC4FEA1C4CB1
:102B00000CFB0BF7B0EBC74072EB573203FB0CF733
:102B100034BFA2EBC742B2EBC74261EB57310CFBAB
:102B20000EF7B0EBC70072EB57720CFB08F734BF1F
:102B3000A2EBC702B2EBC70261EB57714FEA8161AA
:102B400041EA92114FEA826242EA90124FEA8060B3
:102B500015EB4C2544F100044FEAD13706FB07FC86
:102B60004FEA1C4C0CFB0BF7D21B03FB0CF761EB81
:102B700007010CFB0EF7B0EB074072EB17420CFBA2
:102B800008F734BFA2EB0742B2EB074261EB1741F3
:102B90004FEA813141EA92414FEA823242EA904261
:102BA0004FEA80304FEA0C7615EB1C1544F1000417
:102BB00048EA03434EEA0B484FF0000EB2EB080C14
:102BC00071EB030724BF624639464EEB0E0E4FF001
:102BD000000B0018524149414BEB0B0BB2EB080CB8
:102BE00071EB03077BF1000B24BF624639464EEBC5
:102BF0000E0E4FF0000B0018524149414BEB0B0BEE
:102C0000B2EB080C71EB03077BF1000B24BF6246AB
:102C100039464EEB0E0E51EA020718BF46F0010688
:102C200016EB0E7655F1000254F1000103D5BDE814
:102C30008901BDE80088BDE88901BDE80048B619F2
:102C4000524141EB0101A3F10103704780807F7E77
:102C50007D7C7B7A79787776767574737271717012
:102C60006F6E6E6D6C6C6B6A6A69686867666665C4
:102C70006464636362616160605F5F5E5E5D5D5C52
:102C80005C5B5B5A5A5959585857575656555555C3
:102C90005454535352525251515050504F4F4F4E23
:102CA0004E4D4D4D4C4C4C4B4B4B4A4A4A49494971
:102CB00048484847474747464646454545444444B3
:102CC0004443434343424242424141419C46002BDC
:102CD00030D477002BD04FEA37071CB503B44FF040
:102CE00010004FF01001BAF1000F06D0BCF1000F38
:102CF000DCBF40F0080040F008014FF000000FBCBE
:102D0000BDE810400BF1010BBBF1010F08BF5FEAFA
:102D1000170722BF12F1010211F101014FF000412A
:102D200043F1000300F0004043EA00007047F9D38C
:102D30005708D0E746EA06464FEA164613F1400F19
:102D40001FDD13F1200FDFBF16430A460021203399
:102D50005B42BED0C3F1200746EA06464FEA16465C
:102D600002FA07F746EA070622FA03F2C3F1200740
:102D700001FA07F742EA070221FA03F14FF00003D4
:102D8000A7E746EA020646EA06464FEA164646EA3C
:102D90000106BCBF46EA0646360C4FF000034FF072
:102DA00000024FF0000194E72DE9804C70B49A4680
:102DB000934691E8380007C831EA400C48BF34EA2E
:102DC000430C03D5FFF7E6FDFFF780FFF0BCBDE83D
:102DD000008C2DE9804C70B49A46934691E83800F7
:102DE00007C810F0804F08BF13F0804F03D100F0E8
:102DF00005F8FFF76BFFF0BCBDE8008C20F07F47C3
:102E000023F07F4C80EA030000F0004007EB0C0346
:102E1000A3F57C53A3F1FE0392F0000F00F0B38002
:102E200095F0000F00F077802DE901494FEA11403D
:102E300021EA00484FEA144624EA064700FB06FC54
:102E400008FB06F607FB08F818EB06484CEB164C97
:102E500000FB07F718EB07484CEB17404FEA124B03
:102E600022EA0B4E4FEA154625EA06470BFB06FC05
:102E70000EFB06F607FB0EFE1EEB064E4CEB164C49
:102E80000BFB07F71EEB074E4CEB174B18EB0B0831
:102E900040F1000018EB0E0B58EB000840F1000069
:102EA0008F1A4FF000014FF000063CBFC943661B6C
:102EB00014BFB5EB040C00213CBFC943F61B4FEA1D
:102EC000174427EA04454FEA1C472CEA074C04FB49
:102ED000076205FB07F70CFB05F616EB074642EB0E
:102EE000174204FB0CFC16EB0C4642EB1C421BEB9E
:102EF000060658EB020241414EEA8E0E46EA9E0655
:102F000001D5BDE80189B619524141EB0101A3F198
:102F10000103BDE801894FEA144524EA05464FEA5A
:102F2000114721EA074C05FB07F406FB07F70CFBEA
:102F300006F111EB074144EB174405FB0CFC11EBC8
:102F40000C4144EB1C444FEA124722EA074C05FBB4
:102F500007F206FB07F70CFB06F616EB074642EBFB
:102F6000174205FB0CFC16EB0C4642EB1C456A189D
:102F700054F1000148BF7047B619524141EB0101BD
:102F8000A3F10103704795F0000F37D04FEA1142CB
:102F900021EA02464FEA144724EA074C02FB07F1F4
:102FA00006FB07F70CFB06F414EB074441EB174153
:102FB00002FB0CFC14EB0C4441EB1C414FEA15479F
:102FC00025EA074C02FB07F506FB07F70CFB06F6A4
:102FD00016EB074645EB174502FB0CFC16EB0C46BF
:102FE00045EB1C42121951F1000148BF7047B61958
:102FF000524141EB0101A3F1010370474FEA14452F
:1030000024EA05464FEA114721EA074C05FB07F180
:1030100006FB07F70CFB06F212EB074241EB1741E8
:1030200005FB0CFC12EB0C4251EB1C414FF000066F
:1030300048BF7047921841EB0101A3F101037047AB
:10304000490050EAC12018BF04204A0D18BF40F0C3
:10305000010040F2FF72B2EB515F08BF40F0020086
:10306000012808BF0520704730380A2801D2012006
:10307000704700207047000010B500290AD008787A
:10308000002807D005487844FDF74CF9002801D006
:10309000002010BD0248784410BD0000FA01000075
:1030A000F201000010B500290AD00878002807D0E6
:1030B00005487844FDF736F9002801D0002010BDFE
:1030C0000248784410BD0000DE020000D602000075
:1030D000FDF7DCBDFDF710BF0000000000000000A0
:1030E000303132333435363738394142434445463E
:1030F0004030580030313233343536373839616238
:103100006364656640307800040000080000000039
:103110000000000200010000103031323334353637
:1031200037383961626364656678700030313233F4
:10313000343536373839414243444546585000000B
:1031400002400000000000A0000000000540000058
:10315000000000C8000000000C4000000000409C7F
:1031600000000000194000000020BCBE000000006C
:1031700034400000BFC91B8E00000004B5400000B1
:10318000504BCFD06607E2CF010000006C41000039
:103190003E8251AADFEEA73401000000D9420000B0
:1031A000DCB5A0E23A301F97FFFFFFFFB4450000F7
:1031B000FD25A0C8E9A3C14FFFFFFFFFFF3F0000AF
:1031C0000000008000000000FF3F000000000080C1
:1031D00000000000577269746520737472696E672D
:1031E0003A20004C656E6774683A20005772697423
:1031F00065206E756D6265723A200057726974655C
:10320000206368617261637465723A2000417420C2
:10321000616464726573733A2000256400526561CD
:103220006420737472696E670057726974652073E5
:103230007472696E670052656164206E756D6265B7
:1032400072005772697465206E756D626572005206
:1032500065616420636861726163746572005772AE
:10326000697465206368617261637465720000004F
:10327000AC33000800000020300B000028010008DB
:103280001001000043000000F8FFFFFF0040404035
:103290004040404040404141414141404040404029
:1032A00040404040404040404040404040050202D5
:1032B0000202020202020202020202020220202094
:1032C00020202020202020020202020202029090F0
:1032D00090909090101010101010101010101010EE
:1032E0001010101010101010020202020202888842
:1032F000888888880808080808080808080808084E
:103300000808080808080808020202024000000035
:1033100000000000000000000000000000000000AD
:10332000000000000000000000000000000000009D
:10333000000000000000000000000000000000008D
:10334000000000000000000000000000000000007D
:10335000000000000000000000000000000000006D
:10336000000000000000000000000000000000005D
:10337000000000000000000000000000000000004D
:10338000000000000000000000000000000000003D
:103390001C00000043000000F8FFFFFF0C000000CD
:0C33A0000E0000000F0000002E000000D6
:04000005080000ED02
:00000001FF
