:020000040800F2
:10000000500D002061020008690200086B02000820
:100010006D0200086F020008710200080000000075
:100020000000000000000000000000007302000853
:10003000750200080000000077020008790200083D
:100040007B0200087B0200087B0200087B0200089C
:100050007B0200087B0200087B0200087B0200088C
:100060007B0200087B0200087B0200087B0200087C
:100070007B0200087B0200087B0200087B0200086C
:100080007B0200087B0200087B0200087B0200085C
:100090007B0200087B0200087B0200087B0200084C
:1000A0007B020008552000087B0200087B02000844
:1000B0007B0200087B0200087B0200087B0200082C
:1000C0007B0200087B0200087B0200087B0200081C
:1000D0007B0200087B020008FD2E00087B0200085E
:1000E0007B0200087B0200087B02000800F002F897
:1000F00000F0A6F814A696E8000CB244B344DA4522
:1001000001D100F09DF8BAE80F000FA696E8300084
:10011000A5EB040504EB0607AAEB0704A7F101070A
:100120004FEA15154FEA3414A4F10104AC4201D38F
:1001300000F086F813F0010F18BFFB1A43F001031B
:1001400000F001F8DBE718470C3A00002C3A0000F9
:10015000103A24BF78C878C1FAD8520724BF30C8F3
:1001600030C144BF04680C60704700007047000055
:100170000023002400250026103A28BF78C1FBD8B0
:10018000520728BF30C148BF0B6070476E2900F08E
:10019000D381702900F01583662903F00184652955
:1001A00003F0FE83672903F0FB83612903F0FA83E0
:1001B00003681B0A28BF41F08001692900F0808193
:1001C000642900F07D81752900F07A816F2900F0A3
:1001D000A382782900F0E182E92900F03D82E42938
:1001E00000F03A82F52900F03782EF2900F0A08272
:1001F000F82900F0E0820368DB0928BF41F08001A4
:10020000632901F02580732901F02A80E32901F098
:100210003580F32901F03A80002070471FB501F0C6
:10022000D1F804000020002103F08EFB401C606028
:100230000020002103F09EFBE0601FBD10B510BD43
:1002400001F09BF81146FFF7E9FF02F079FF01F09A
:100250007DF903B4FFF7F2FF03BC01F081F9000060
:100260000948804709480047FEE7FEE7FEE7FEE74A
:10027000FEE7FEE7FEE7FEE7FEE7FEE70448054986
:10028000054A064B70470000751F0008ED00000886
:1002900050070020500D0020500900205009002078
:1002A0000FB41CB5084B06AA7B446946009005981C
:1002B00000F05BF904460020694600F069F9204629
:1002C0001CBC5DF814FB0000E502000070B506469A
:1002D00000F090F80468054630460A22002100F03C
:1002E0003FFB2C6070BD40EA0103024630B59B071E
:1002F00010D14FF0013400E008C208C91D1B9D4316
:1003000015EAC41FF8D013F0FF0102F8011B0DD04D
:100310001B0AF8E711F8013B002B02F8013B05D05E
:1003200011F8013B002B02F8013BF3D130BD10B5B1
:10033000431C02E010F8011B71B18107FAD14FF0A4
:10034000013202C88C1A8C4314EAC211F9D0C01AC7
:100350000A0603D0C01E10BDC01A10BD0A0401D089
:10036000801E10BD0902FCD0401E10BD4FF0013CA4
:1003700050F8042B51F8043B9A4221D1A2EB0C0314
:10038000934313EACC1317D150F8042B51F8043BD4
:100390009A4215D1A2EB0C03934313EACC130BD171
:1003A00050F8042B51F8043B9A4209D1A2EB0C03FC
:1003B000934313EACC13DBD04FF00000704700BF2B
:1003C000D01A01BAB1FA81F101F0180122FA01F054
:1003D000CB40DBB2C0B2C01AC1F120012CFA01F34C
:1003E000D11A914311EAC311E6D1704770477047A3
:1003F00070470000004870471800002070B50446A0
:1004000085690068C10601D5302600E02026C007B6
:1004100007D070BDD4E9012130469047206A401CC6
:1004200020626D1EF6D570BD70B5044685690078F2
:10043000C00707D170BDD4E9012120209047206A70
:10044000401C20626D1EF6D570BD09684A0501D5B5
:1004500040B27047C905FCD500B2704709684A052B
:1004600001D5C0B27047C905FCD580B2704770B5E0
:100470000C460546012A05D02878800600D5EA6991
:10048000002302E0012305E05B1C934202D2E05C02
:100490000028F9D1A869E618C01AA861286A18448A
:1004A00028622846FFF7AAFF04E0D5E9012114F8E5
:1004B000010B9047B442F8D32846FFF7B5FF70BD53
:1004C0002DE9F0410646002410687529314616A52D
:1004D00010D0FFF7BAFF002802DA404213A507E068
:1004E00031688A0701D512A502E0490704D511A594
:1004F000012401E0FFF7B2FF00210A2206F12407E0
:1005000009E0B0FBF2FCB0FBF2F302FB1C00303060
:1005100078541846491C0028F3D123462A46304611
:10052000BDE8F04100F0A5BA000000002D00000079
:100530002B0000002000000011680268006A5305CB
:1005400001D508700AE0D30501D5088006E013063E
:1005500003D5C217C1E9000200E00860012070471E
:1005600001694A1C02610878704700B58FB0CDE977
:1005700001310021059105497944CDE90310114667
:10058000684600F029F90FB000BD0000E5FFFFFF4D
:100590000A6802F8010B0A60704700002DE9FF5F4E
:1005A00015468A460446DFF8AC80F8440027D8E9AF
:1005B00000103E46CDE9001010E03AF816106A46E9
:1005C00002A800F0B6FE411C07D02178890603D5A9
:1005D000E269391891420DD80744761C20788006CC
:1005E00002D5E069B84205DDAE42E6DB3AF8160016
:1005F0000028E2D1A069C01BA0612046FFF7FEFEE3
:10060000D8E90010CDE90010002017E03AF81810E2
:100610006A4602A800F08DFEB0F1FF3F81460BD084
:1006200000250DF1080B05E0D4E901211BF80500B8
:1006300090476D1C4D45F7D308F10100B04280464C
:10064000E4DB206A384420622046FFF7EDFEBDE877
:10065000FF9F0000FA3300002DE9F0418046D21DD3
:1006600022F007020025D2E90002F52915A614D0D0
:10067000011E72F1000106DA0023D0EB030063EBE8
:10068000020211A608E0D8F800108B0701D50FA6CA
:1006900002E0490701D50EA601251146002408F104
:1006A000240704E000F0A0F930323A55641C50EA07
:1006B0000102F7D12B46324621464046BDE8F041C3
:1006C00000F0D7B9000000002D0000002B00000052
:1006D0002000000030B4002100F1240408E002F002
:1006E0000705D208303542EA4372DB086554491CDD
:1006F00052EA0305F3D10468002310A2250708D5A8
:1007000004F020040C4304D0C46901230CA2641E2D
:10071000C46130BC00F0ADB910B504462146106884
:10072000FFF79CFE02462046BDE810400023D1E7BB
:10073000D21D22F00701D1E90023CBE70000000021
:1007400030000000F0B40D460188090502D5214CA7
:100750007C4402E01F4C7C440E34002100F124064E
:1007600008E002F00F071209E75D42EA03721B0975
:100770007754491C52EA0307F3D102780023120789
:1007800004D5702D06D009B1022311342246F0BCE5
:1007900000F06FB901231034F8E770B504460D4638
:1007A00021461068FFF75AFE024629462046BDE85A
:1007B00070400023C6E7D21D22F00703D3E90023CF
:1007C000C0E70368126843F0200303600823C36195
:1007D0000023B7E75C3200002DE9F05F894604464C
:1007E0004FF0000ADFF874B1FB44C0F820A02046A7
:1007F000E1688847002874D0252806D0D4E9012173
:100800009047206A401C2062F1E700265F462046A0
:10081000E16888472028054607DB312D05D2781985
:1008200010F8200C08B10643F1E7B00701D526F017
:100830000406C4F81CA00027C4F818A02A2D09D06B
:10084000284603F079F838B304EB8708303DC8F840
:10085000185019E059F8041B204604EB87029161F7
:10086000E1688847012F054618D1E069002820DAA1
:1008700026F020061DE0D8F8180000EB800005EBFC
:1008800040003038C8F818002046E168884705461F
:1008900003F052F80028EED1012F0AD02E2D08D1F6
:1008A0002046E16888477F1C0546022F46F0200657
:1008B000C4DBA069002803DA404246F00106A061CB
:1008C000F00701D026F010066C2D0BD0682D09D052
:1008D0004C2D39D06A2D35D0742D35D07A2D33D0AA
:1008E00016E038E0E1682F4620468847B8420546C2
:1008F00009D16C2F26D04FF48060E1680643204672
:100900008847054604E06C2F1AD04FF480700643E8
:100910000DB3A5F14100192802D8203546F4006630
:100920004A462946204626604E46FFF72FFC80B1F6
:1009300001280BD0F61D26F0070000F1080956E744
:100940004020E4E78020D8E70020D6E706F104093C
:100950004DE7284652E7206ABDE8F09FEC310000E1
:100960002DE9F04791460F4680460446002614F8CC
:10097000015B2DB100F030F80068405DC007F6D192
:100980002B2D02D02D2D18D0641E4A463946204604
:1009900000F080FC27B13968A14201D1C7F800807E
:1009A0004FF0020471050BD54042002803DDFFF72C
:1009B00021FD0460A007BDE8F08746F48066E4E707
:1009C0000028F8DAFFF716FD04606FF00040F2E748
:1009D000004870471800002010B500F0F3FC001D1F
:1009E00010BD00BF652F000030B5B0F10A0271F1F3
:1009F00000034FEA900E4EEA817EB0EB0E0061EBF1
:100A000091014FEA101E4EEA017E10EB0E0041EB01
:100A100011114FEA102E4EEA016E10EB0E0041EB61
:100A200011214FEA104E4EEA014E10EB0E0041EB41
:100A30001141401841F100014FEAD00040EA4170F5
:100A40004FEAD1014FEA810444EA907410EB80052B
:100A500044EB01046D1944EB0404521BA3414FF015
:100A6000000348BF0A3200D530BD401C41F10001EF
:100A700030BD2DE9F0470D4699469246044600F1F7
:100A800024080168880604D5E06921F0100121607E
:100A900000E00120A84201DD471B00E00027A1691A
:100AA0007A1902EB0900081AA0612078C00602D466
:100AB0002046FFF7A3FC002608E0D4E901211AF83C
:100AC00006009047206A401C761C20624E45F4DBED
:100AD0002078C0060AD52046FFF790FC06E0D4E94E
:100AE000012130209047206A401C2062381EA7F167
:100AF0000107F4DC07E0D4E9012118F8050090476C
:100B0000206A401C2062281EA5F10105F3DC204666
:100B1000FFF78AFC2078000602D50220BDE8F087A6
:100B20000120FBE72DE9FF4F0C461E464FF0FF3733
:100B30008BB0D2E90001DDF860800A908A46C1F3EB
:100B40000A5505B93D46002108464FF00000BAF1AC
:100B5000000F00F4400005DA00EB80004FF4400184
:100B600001EA50004FEA9059B9F1010F00DDB94692
:100B70000A9850EA4A000ED044F61050A5F2FF350C
:100B800045432F14B8F1000F1ED07542291E1EDDFB
:100B9000C9F100021CE0B8F1010F4FF0000001D0D4
:100BA000302103E0F24305E02154401CB042FBDB5E
:100BB00030460022002121540B99C1F80880C1E978
:100BC00000200FB0BDE8F08FBD1B6D1CDEE74A466C
:100BD00000DA694206A800F047FC06AB93E807007C
:100BE00003AB83E8070050460A9902F0C8FA8DE883
:100BF0000700A0F500501F3800900398002D0ADD73
:100C000042F21F014A460844002303A903906846A4
:100C100002F032FD09E0A0F500504A461F380023DB
:100C200003A90390684602F03CFD8DE8070000042C
:100C3000000C03D04FF0FF30410800E01046B8F13F
:100C4000000F03D00022009215461EE0751E05D449
:100C5000FFF7CAFE303262556D1EF9D5B346012248
:100C6000084302D000227F1C04E02078302801D104
:100C700000227F1E002A099784D01DE0112D07DA7B
:100C8000FFF7B2FE303262556D1C50EA0102F5D119
:100C9000084302D00098C8B10EE00021681E05E0AC
:100CA000235C625C63542254401E491C8142F7DB82
:100CB000AB46A81B401E0990002004F80B000B98BF
:100CC000099AC0F80880C0E9002B7AE711264FF096
:100CD000000857E72DE9F04F88460446D21D22F060
:100CE000070191B0D1E90001CDE90A0102F010FE3F
:100CF00002460B98C00F01D02D2007E02068810725
:100D000001D52B2002E0202101EAC000032A09902E
:100D100001D0072A05DB03464146204600F056FB7A
:100D20000BE12078800601D5E06900E00620B8F1EB
:100D3000650F814606D0B8F1660F18D0B8F1670F7D
:100D400070D131E00020B9F1110F009001DB1123C7
:100D500001E009F101030AAA01A90CA8FFF7E2FECC
:100D6000DDE90C70002609F10105834647E001200A
:100D70004B4600904FF000470AAA01A90CA8FFF7C4
:100D8000D1FEDDE90DB00C995D46002610B909F1E0
:100D900001000D18B9EB050003D4C0F1FF3609F1CD
:100DA0000105A5EB09002BE0B9F1010F01DA4FF0C5
:100DB00001090020B9F1110F0090484601DD11230F
:100DC00000E003460AAA01A90CA8FFF7ABFEDDE983
:100DD0000C704D4600268346207800070AD4AB45A8
:100DE00000DA5D4601A8012D04DD411911F8011C4E
:100DF000302907D04F4502DA17F1040F04DA012039
:100E000082460FE06D1EEEE7002F02DCED1B3E4434
:100E100003E0781CA84200DD7D1CB81B00F1010A2C
:100E20004FF000472078000703D4AA4501DB4FF0BC
:100E3000FF3A0021B7F1004F0DF143088DF8431040
:100E400024D002202B23002F01DA7F422D230A21F8
:100E5000021EA0F1010000DC5FB197FBF1FC97FBE3
:100E6000F1F201FB1C7C17460CF1300C08F801CDA7
:100E7000EEE7A8F1010003702188090501D545219D
:100E800000E06521A0F1010800F8011C09980FA9F4
:100E9000A1EB0807FF1D00B10120411901EBEA7029
:100EA000A1693844081A401EA0612078C00602D407
:100EB0002046FFF7A3FA099828B1D4E90121904709
:100EC000206A401C20622078C00622D52046FFF709
:100ED00095FA1EE0002E04DBB34502DD01A8805D1B
:100EE00000E03020D4E901219047206A401C2062B4
:100EF000761CAAF101005FEA000A0AD100F062FA4A
:100F0000C0680168405CD4E901219047206A401C18
:100F10002062281EA5F10105DCDC07E0D4E90121EF
:100F200018F8010B9047206A401C2062381EA7F178
:100F30000107F3DC2046FFF777FA032011B041E602
:100F40002DE9F04F04460D46D21D22F0070089B06E
:100F5000D0E900974846394602F0DAFC0246F80F1D
:100F600001D02D2307E02068810701D52B2302E063
:100F7000202101EAC0038DF820300BB1012000E0F0
:100F80000020032A824601D0072A04DB2946204696
:100F900000F01CFA3FE12078800601D40D2500E026
:100FA000E569C7F30A560D2D49DA00214FEA175BB0
:100FB00008464FF00000002F00F4400007DA00EB75
:100FC00080004FF4400100EBD07001EA6000811511
:100FD000012901DD4FF0FF3100224FEA850CBCF101
:100FE000180F06D31346ACF118004FF08052C240E0
:100FF00003E04FF4801323FA0CF30CF10C0CBCF15A
:10100000200F04D3ACF1200C09FA0CF001E007FA30
:101010000CF000294FF0004801DD18B90FE00ED1A7
:1010200040450CD319EB02095F4121B9404502D17B
:101030009F4329EA0209BBEB175F00D0761C20888A
:10104000000502D57B48784402E07A487844193894
:1010500008AA302302F80A30037C0AF10101002EAD
:101060000AF1020A53546A4602DC4FF0300101E0F3
:101070004FF031014FF001088DF8001002D0A6F2B8
:10108000FF3603E059EA470100D06B4E002D02DC29
:101090002178090704D54FF002082E218DF80110A0
:1010A000C44600210BE0C7F303433F01C35C491C66
:1010B0006D1E02F80830052908F1010801DA002D3B
:1010C000F1DC00210CE000EB1973491C1B786D1E4C
:1010D000082902F808304FEA091908F1010801DA75
:1010E000002DF0DC21688B0602D516E0A8F101087E
:1010F000E04505DD02EB080313F8013C302BF5D089
:10110000B8F1000F09DD02EB080313F8013C2E2BA8
:1011100003D1090701D4A8F10108002D05DD3E2106
:1011200002F808106D1E08F10108407C002E02F83C
:10113000080008F1010804DA2D20764202F80800C0
:1011400002E02B2002F808000A214FF47A70864250
:1011500008F101080BDB96FBF0F3303302F808309E
:1011600096FBF0F308F1010800FB136601E0642E22
:101170000CDB642096FBF0F3303302F8083096FB6A
:10118000F0F308F1010800FB136601E00A2E06DB0C
:1011900096FBF1F0303002F8080008F1010896FBE8
:1011A000F1F001FB1060303002F80800A16908F18D
:1011B000010808EB050202EB0A00081AA06120787A
:1011C000C00602D42046FFF719F9216A08AE01EBE8
:1011D0000A00206204E0D4E9012116F8010B9047CF
:1011E000BAF1010AF7D22078C00602D52046FFF7EF
:1011F00005F96E4609E016F8010B3E280FD0D4E938
:1012000001219047206A401C2062B8F10108F2D207
:101210002046FFF709F909B00320BDE8F08F206AE6
:101220002844206203E0D4E90121302090476D1E5C
:10123000EBD3F8E7B229000002FCFFFF10B54369C9
:1012400013B1AFF3008001E0FFF711F9012010BDE9
:10125000127800F124010A7000224A700122EDE7A1
:1012600011684FF0FF32E9E710B5436913B1AFF3EE
:10127000008001E0FFF792F9012010BD128800F113
:10128000240182840022C2840122EDE711684FF01C
:10129000FF32E9E72DE9F05F824615468B460027CD
:1012A0000AF10104B9460078302801D09DB113E05D
:1012B00014F8010B0127782803D0582801D045B134
:1012C0000AE00DB1102D07D1002714F8010B1025ED
:1012D00002E0082500E00A250026B0460EE005FBE6
:1012E000080005FB06F101271FFA80F801EB104604
:1012F000B6F5803F00D3B94614F8010B294600F03B
:10130000A5F80028EBDABBF1000F05D00FB1641E81
:1013100000E05446CBF80040B9F1000F06D0FFF7CB
:1013200069F802210160C81EBDE8F09F48EA064046
:10133000FAE72DE9F04116460C460546FFF74CFB4F
:10134000036893F80101012807D0FF2C12D8185D1B
:1013500080B101202C70BDE8F081D3F8070132463E
:10136000214603F20713C7182846BC46BDE8F041E2
:10137000002360474FF0FF30EDE77546FFF728FB8D
:10138000AE4605006946534620F00700854618B072
:1013900020B5FEF773FFBDE820404FF000064FF088
:1013A00000074FF000084FF0000BAC46ACE8C00956
:1013B000ACE8C009ACE8C009ACE8C00921F00701FD
:1013C0008D46704700487047380000202DE9F041F5
:1013D0001F46044603260168072A01F4006004DB67
:1013E00008B116A505E016A503E008B115A500E0B3
:1013F00015A521F010002060A069C01EA0610FB1EA
:10140000401EA0612046FEF7F9FF4FB1D4E901214B
:1014100038469047206A401C2062C01C206206E0CB
:10142000206AFAE7D4E9012115F8010B9047761EEE
:10143000F8D22046FEF7F8FFBDE8F0814E414E009D
:101440006E616E00494E4600696E66003A2800D211
:10145000303820F02002412A01D3A2F1370088421F
:1014600001D34FF0FF3070472DE9F0478146164613
:101470008AB0354878440DC88DE80D00324878446C
:10148000801C03AC0DC884E80D0041F69B30084475
:10149000372190FBF1F290FBF1F5A5F1800501FBFE
:1014A00012041B3C02D56442012000E00020DFF85A
:1014B00098A080460027FA44AAF1BE0A0EE0E00791
:1014C0000AD03246684607EB470101230AEB810147
:1014D00002F0E7F88DE8070064107F1C002CEED1C5
:1014E000194F7F44AE3F19E0E80715D007EB041011
:1014F0000DF1180A90E80E008AE80E00C068F0426C
:1015000001D1981908903246012306A903A802F0D8
:10151000C8F803AB83E807006D10641C002DE3D10D
:101520004FF0010332466946B8F1000F03A802D01C
:1015300002F0A2F801E002F0B4F8C9E90001C9F82C
:1015400008200AB0BDE8F0871426000010B5044654
:10155000AFF300802046BDE81040FEF77ABE0000E1
:1015600001491820ABBEFEE72600020070470000CC
:1015700080B584B0039000F043F8039800F00102B6
:1015800000210191084600F0D7F801980399C1F3B2
:1015900040020121029100F0CFF802980399C1F3B3
:1015A00080020C2100F0C8F802980399C1F3C00230
:1015B0000D2100F0C1F801980399C1F30012042134
:1015C00000F0BAF801980399C1F34012052100F028
:1015D000B3F801980399C1F38012062100F0ACF82A
:1015E00001980399C1F3C012072100F0A5F80298F1
:1015F0000399C1F300220B2100F09EF804B080BDD6
:1016000083B041F21800C4F2020002900299086807
:1016100040F00C00086040F60000C4F201000190A8
:101620000199487800020860019908681122C1F206
:1016300011121043086040F60440C4F2010000900B
:10164000009908686FF3173008600099086841F244
:101650000002C0F211021043086003B0704700009E
:1016600082B041F20000C4F20200019041F2040095
:10167000C4F2020000900199086840F480300860CC
:10168000FFE7012008B9FFE7FBE70099086840F091
:101690000100086002B0704782B041F21800C4F245
:1016A000020001900199086840F00400086040F6CB
:1016B0000400C4F2010000900099086840F6FF722F
:1016C000C0F6F072104008600099086841F200020C
:1016D000C1F201021043086002B0704784B08DF877
:1016E0000B00ADF808109DF80B0070B9FFE740F64D
:1016F0000800C4F20100019001980068BDF80810CC
:10170000C84000F00100039013E09DF80B00012891
:101710000ED1FFE740F60840C4F2010000900098A7
:101720000068BDF80810C84000F00100039000E018
:10173000FFE7039804B0704784B08DF80F00ADF850
:101740000C10ADF80A209DF80F00F8B9FFE740F63D
:101750000C00C4F201000190BDF80A0001280AD172
:10176000FFE7BDF80C10012000FA01F201990868AA
:101770001043086009E0BDF80C10012000FA01F2E6
:101780000199086890430860FFE724E09DF80F0086
:1017900001281FD1FFE740F60C40C4F20100009081
:1017A000BDF80A0001280AD1FFE7BDF80C1001209E
:1017B00000FA01F2009908681043086009E0BDF8DA
:1017C0000C10012000FA01F20099086890430860AB
:1017D000FFE7FFE7FFE704B07047000081B08DF836
:1017E00003009DF8030040F20801C2F200010968FD
:1017F0000860FFE740F20C00C2F2000000680078C9
:101800008007002801D4FFE7F4E740F20C00C2F2A1
:1018100000000068006840F21001C2F2000109688F
:10182000096808438DF8020001B0704786B041F2A4
:101830001C00C4F2020005900599086840F40010ED
:10184000086041F21800C4F202000490049908688C
:1018500040F00800086040F60040C4F20100039028
:101860000399086820F07F4008600399086840F0F9
:101870005D40086040F20000C2F2000001680868A4
:1018800020F00200086040F20400C2F2000002688A
:10189000116841F4004111600268116821F40041AF
:1018A00011600268116821F00101116045F20441E4
:1018B000C4F200010291029A116841F01001116016
:1018C00045F21C41C4F200010191019A50211160BE
:1018D00045F22041C4F200010091009A11211160EB
:1018E0000168086840F00100086006B07047000019
:1018F00081B040F20400C2F200000168086840F4C0
:101900008070086045F21440C4F200000090FFE7C8
:1019100000980078C00708B9FFE7F9E701B0704701
:1019200040F20400C2F200000168086840F4007050
:101930000860704781B08DF80300FFE740F20C00AB
:10194000C2F20000006800780006002801D4FFE71A
:10195000F4E79DF8030040F20801C2F200010968B3
:101960000860FFE740F20C00C2F200000068007857
:101970004007002801D4FFE7F4E701B070470000FA
:1019800084B041F21800C4F2020003900399086881
:1019900040F00C00086040F60400C4F20100029020
:1019A0000299086840F6FF7290430860029908683F
:1019B00040F244421043086040F60040C4F2010087
:1019C00001900199086820F0FF00086001990868FB
:1019D00040F04400086040F60440C4F2010000906A
:1019E000009908684FF2FF02C0F2FF021040086041
:1019F0000099086840F20042C4F2004210430860B7
:101A000004B0704784B041F21800C4F202000390A1
:101A10000399086840F00C00086040F60400C4F226
:101A2000010002900299086840F6FF729043086036
:101A30000299086840F211121043086040F6004015
:101A4000C4F2010001900199086820F0FF000860CD
:101A50000199086840F01100086040F60440C4F2A3
:101A600001000090009908684FF2FF02C0F2FF02E7
:101A7000104008600099086840F20012C1F200129C
:101A80001043086004B0704780B582B0802000F039
:101A90006FF800200190FFE70198452808DCFFE778
:101AA000202000F095F8FFE7019801300190F3E75E
:101AB00002B080BD80B584B04FF4FA7000F0DEFA59
:101AC0003020019000F054F8322000F0D7FA01984D
:101AD00000F04EF8022000F0D1FA019800F048F82A
:101AE0006420029000F0CAFA202000F041F8029829
:101AF00000F0C4FA282000F03BF80A20039000F020
:101B0000BDFA082000F034F8039800F0B7FA01207D
:101B100000F02EF8039800F0B1FA039800F0AEFA46
:101B2000062000F025F8039800F0A8FA0C2000F039
:101B30001FF804B080BD000080B584B0039002910E
:101B40000398019020B1FFE70198012805D009E032
:101B5000029840F08000029004E0029840F0C0003B
:101B60000290FFE79DF8080000F002F804B080BD85
:101B700080B582B08DF807009DF8070000F0F000F6
:101B80008DF806009DF8070000018DF805009DF80E
:101B9000060040F00C008DF801009DF8060040F0B2
:101BA00008008DF802009DF8050040F00C008DF84B
:101BB00003009DF8050040F008008DF804004E2059
:101BC0000DF10101042200F045F802B080BD0000D3
:101BD00080B582B08DF807009DF8070000F0F00096
:101BE0008DF806009DF8070000018DF805009DF8AE
:101BF000060040F00D008DF801009DF8060040F051
:101C000009008DF802009DF8050040F00D008DF8E8
:101C100003009DF8050040F009008DF804004E20F7
:101C20000DF10101042200F015F802B080BD0000A2
:101C300080B582B00190FFE70198007838B1FFE7E6
:101C40000198411C01910078FFF7C2FFF4E702B050
:101C500080BD000080B584B08DF80F000291019224
:101C6000FFF746FE9DF80F00FFF7B8FD002000903B
:101C7000FFE70098019988420BDAFFE70298411CC0
:101C800002910078FFF756FEFFE7009801300090C0
:101C9000EFE7FFF745FE04B080BD000080B58AB0D5
:101CA000FFF76EFE012004900A210791FFF716FD51
:101CB000049900F0010000900846FFF70FFD00991D
:101CC0000246049802F0010241EA4201019100211A
:101CD0000891FFF703FD01990246089802F00102FE
:101CE00041EA820102910821FFF7F8FC02990246BD
:101CF000049802F0010241EAC20103910F21FFF7AB
:101D0000EDFC03990246049802F0010241EA021137
:101D100005910E21FFF7E2FC05990246089802F0B2
:101D2000010241EA421106910921FFF7D7FC069A08
:101D300007990346089803F0010302EB8312099206
:101D4000FFF7CCFC0146099800EBC11140F2791075
:101D5000C2F20000017000780AB080BD80B582B088
:101D60000190FFF70DFE0198FFF702FC00200090A4
:101D70000C210122FFF7E0FC009A0B211046FFF72F
:101D8000DBFC02B080BD000080B58AB00120049069
:101D90000A210791FFF7A2FC049900F001000090CE
:101DA0000846FFF79BFC00990246049802F00102E6
:101DB00041EA4201019100210891FFF78FFC01994E
:101DC0000246089802F0010241EA820102910821CC
:101DD000FFF784FC02990246049802F0010241EAEE
:101DE000C20103910F21FFF779FC03990246049881
:101DF00002F0010241EA021105910E21FFF76EFC8B
:101E000005990246089802F0010241EA4211069142
:101E10000921FFF763FC069A07990346089803F027
:101E2000010302EB83120992FFF758FC014609985F
:101E300001F0010100EBC11140F27C30C2F2000060
:101E4000016000680AB080BD80B500F001F880BD77
:101E500084B000200390029041F20001C4F202011C
:101E6000086840F480300860FFE741F20000C4F2E7
:101E70000200006800F400300290039801300390E3
:101E8000FFE702990020019039B9FFE70398B0F508
:101E9000A06018BF01200190FFE70198C00700284B
:101EA000E3D1FFE741F20000C4F2020000688003C2
:101EB000002803D5FFE70120029002E000200290F5
:101EC000FFE70298012851D1FFE742F20001C4F276
:101ED0000201086840F010000860086820F0070060
:101EE0000860086840F00200086041F20401C4F292
:101EF000020100910868086008680860086840F4FA
:101F000080600860086820F47C100860086840F46D
:101F1000E810086041F20001C4F20201086840F0D4
:101F200080700860FFE741F20000C4F20200006820
:101F30008001002801D4FFE7F5E741F20401C4F273
:101F40000201086820F003000860086840F0020001
:101F50000860FFE741F20400C4F20200006800F0EC
:101F60000C00082801D0FFE7F4E700E0FFE704B029
:101F70007047000080B541F20002C4F2020210680E
:101F800040F00100106041F20401C4F2020108684F
:101F90000023CFF6FF031840086010684FF6FF7368
:101FA000CFF6F66318401060106820F480201060AF
:101FB000086820F4FE00086041F20801C4F2020142
:101FC0004FF41F000860FFF73FFF4EF60851CEF2B6
:101FD00000014FF00060086080BD000086B041F253
:101FE0001800C4F2020005900599086840F40060EA
:101FF000086042F62840C4F20100049042F62C40EA
:10200000C4F20100039042F60040C4F201000290C5
:1020100042F60C40C4F2010001904EF20010CEF2E4
:102020000000009004990F200860039940F2E73007
:1020300008600299088840F001000880009908684B
:1020400040F0007008600199088840F001000880A5
:1020500006B0704781B040F24871C2F200010868D2
:102060000130086042F61040C4F20100009000996F
:10207000088820F00100088001B0704781B000900E
:1020800040F24871C2F2000100200860FFE740F210
:102090004870C2F2000000680099884201DAFFE748
:1020A000F5E701B07047000087B041F21800C4F2B4
:1020B0000200069041F21C00C4F20200059006994D
:1020C000086840F0040008600599086840F4003092
:1020D000086040F60000C4F201000490049908680A
:1020E00020F47F4008600499086840F4924008603A
:1020F0000420C4F2010003900399086820F008004E
:10210000086044F20840C4F200000290029940F6D0
:10211000A660086044F20C40C4F2000001900199EE
:10212000086842F22C02104308604EF20410CEF20E
:10213000000000900099086840F04000086007B077
:102140007047000080B5BEB040F2C260C2F200002D
:1021500043F62731C0F60001FEF708F9002840F0E9
:102160002C81FFE70A2000F08DFE43F6C920C0F65F
:10217000000031900E2100F0A9FE002132910846A6
:10218000FFF7DAFC3198FFF753FD329840F24471C3
:10219000C2F20001086040F2C260C2F2000043F6E1
:1021A0005231C0F60001FEF79EF8FFE740F244709E
:1021B000C2F20000016840F2C260C2F20000405C5E
:1021C0002E2801D0FFE7F1E700203D90FFE73D9882
:1021D00040F24471C2F200010968884210DAFFE758
:1021E0003D9A40F2C260C2F20000805C40F27A2167
:1021F000C2F200018854FFE73D9801303D90E6E7C8
:10220000FFE740F2B460C2F20000016840F27A20B9
:10221000C2F20000405C2E2813D0FFE740F2B46108
:10222000C2F200010B6840F27A20C2F20000C05CEA
:1022300040F2FA22C2F20002D0540868013008606D
:10224000DFE740F2B461C2F2000100203090086084
:1022500040F2FA20C2F200002E90FFF7E9FC30991C
:102260000120FFF769FC2E98FEF761F801462E98D1
:1022700000F02CFE0A2000F005FE43F6EA20C0F62E
:1022800000002F900C2100F021FE2F98FFF7D0FCCA
:10229000309840F24471C2F20001086040F2C2601E
:1022A000C2F2000043F65231C0F60001FEF71BF8FF
:1022B000FFE740F24470C2F20000016840F2C260E1
:1022C000C2F20000405C2A2801D0FFE7F1E70020BD
:1022D0003C90FFE73C9840F24471C2F2000109686B
:1022E000884210DAFFE73C9A40F2C260C2F2000076
:1022F000805C40F27801C2F200018854FFE73C980C
:1023000001303C90E6E7FFE740F2B460C2F2000023
:10231000016840F27800C2F20000405C2A2813D025
:10232000FFE740F2B461C2F200010B6840F27800AE
:10233000C2F20000C05C40F2F802C2F20002D054C7
:10234000086801300860DFE740F2B461C2F20001C2
:1023500000202D90086040F2F800C2F200002B909F
:10236000FFF766FC2B98FDF7E2FF01462B9800F083
:10237000ADFD40F2FA20C2F20000FDF7A7FF0146D2
:102380002B982C91FDF7A2FF01462C98C0B200F0CB
:102390003DFE0A2000F076FD2D9840F24471C2F215
:1023A0000001086040F2C260C2F2000043F6523100
:1023B000C0F60001FDF797FFFFE740F2C260C2F2EE
:1023C000000043F64331C0F60001FDF7CFFF0028BF
:1023D00040F0E480FFE70A2000F054FD43F6D820E7
:1023E000C0F60000112100F071FD00212A9108467D
:1023F000FFF7A2FB43F6BC20C0F60000FFF718FC75
:102400002A9840F24471C2F20001086040F2C260B2
:10241000C2F2000043F65231C0F60001FDF763FF3F
:10242000FFE740F24470C2F20000006808B9FFE71D
:10243000F7E740F2C260C2F200002990017840F252
:102440007810C2F2000026900170007800F01AFDAA
:102450000A2000F017FD26980078FFF7B9FB43F635
:10246000EA20C0F6000027900C2100F02FFD01208B
:1024700000212891FFF760FB2798FFF7D9FB2899E7
:10248000299840F24472C2F20002116043F65231C0
:10249000C0F60001FDF727FFFFE740F24470C2F2EB
:1024A0000000016840F2C260C2F20000405C2A28CD
:1024B00001D0FFE7F1E700203B90FFE73B9840F2B7
:1024C0004471C2F200010968884210DAFFE73B9AC2
:1024D00040F2C260C2F20000805C40F27801C2F2B9
:1024E00000018854FFE73B9801303B90E6E7FFE7A7
:1024F00040F2B460C2F20000016840F27800C2F21B
:102500000000405C2A2813D0FFE740F2B461C2F219
:1025100000010B6840F27800C2F20000C05C40F29B
:10252000F802C2F20002D054086801300860DFE708
:1025300040F2B461C2F2000100202590086040F230
:10254000F800C2F200002390FFF772FB2398FDF71A
:10255000EEFE0146239800F0B9FC239840F2781172
:10256000C2F2000109782491FDF7B0FE01462498DB
:1025700000F0DCFC0A2000F085FC259840F2447154
:10258000C2F20001086040F2C260C2F2000043F6ED
:102590005231C0F60001FDF7A6FEFFE740F2C2602F
:1025A000C2F2000043F60E31C0F60001FDF7DEFE78
:1025B000002840F02981FFE70A2000F063FC43F681
:1025C000A420C0F6000021900E2100F07FFC002125
:1025D00022910846FFF7B0FA2198FFF729FB2298CD
:1025E00040F24471C2F20001086040F2C260C2F2DF
:1025F000000043F65231C0F60001FDF774FEFFE71C
:1026000040F24470C2F20000016840F2C260C2F2BF
:102610000000405C2E2801D0FFE7F1E700203A904F
:10262000FFE73A9840F24471C2F20001096888421B
:1026300010DAFFE73A9A40F2C260C2F20000805C12
:1026400040F28031C2F200018854FFE73A9801302D
:102650003A90E6E7FFE740F2B460C2F2000001689A
:1026600040F28030C2F20000405C2E2813D0FFE719
:1026700040F2B461C2F200010B6840F28030C2F255
:102680000000C05C40F20042C2F20002D054086870
:1026900001300860DFE740F2B460C2F200000021C0
:1026A000209101600120FFF747FA40F20040C2F29A
:1026B00000001E90FFF7BCFA1E98FDF738FE014699
:1026C0001E9800F003FC20990846FFF735FA43F600
:1026D000EA20C0F600001F90FFF7AAFA0A2000F0D7
:1026E000D1FB1F980C2100F0F1FB209840F24471BF
:1026F000C2F20001086040F2C260C2F2000043F67C
:102700005231C0F60001FDF7EEFDFFE740F24470E4
:10271000C2F20000016840F2C260C2F20000405CF8
:102720002A2801D0FFE7F1E700203990FFE7399828
:1027300040F24471C2F200010968884210DAFFE7F2
:10274000399A40F2C260C2F20000805C40F2780127
:10275000C2F200018854FFE7399801303990E6E76A
:10276000FFE740F2B460C2F20000016840F2780076
:10277000C2F20000405C2A2813D0FFE740F2B461A7
:10278000C2F200010B6840F27800C2F20000C05CA7
:1027900040F2F802C2F20002D0540868013008602A
:1027A000DFE740F2B461C2F2000100201D90086032
:1027B00040F2F800C2F200001C90FFF739FA1C98B2
:1027C000FDF7B5FD01461C9800F080FB1C98FDF755
:1027D0007DFD014640F20040C2F2000000F086FCA0
:1027E0000A2000F04FFB1D9840F24471C2F2000134
:1027F000086040F2C260C2F2000043F65231C0F6F7
:102800000001FDF770FDFFE740F2C260C2F2000078
:1028100043F61B31C0F60001FDF7A8FD002840F08B
:10282000D480FFE70A20199000F02CFB43F61B3000
:10283000C0F6000018900B2100F048FB00211B910E
:102840000846FFF779F91898FFF7F2F9199800F0A0
:1028500019FB43F6EA20C0F600001A900C2100F0A4
:1028600035FB1B990120FFF767F91A98FFF7E0F98C
:102870001B9840F24471C2F20001086040F2C2604D
:10288000C2F2000043F65231C0F60001FDF72BFD05
:10289000FFE740F24470C2F20000016840F2C260FB
:1028A000C2F20000405C2A2801D0FFE7F1E70020D7
:1028B0003890FFE7389840F24471C2F2000109688D
:1028C000884210DAFFE7389A40F2C260C2F2000094
:1028D000805C40F27801C2F200018854FFE738982A
:1028E00001303890E6E7FFE740F2B460C2F2000042
:1028F000016840F27800C2F20000405C2A2813D040
:10290000FFE740F2B461C2F200010B6840F27800C8
:10291000C2F20000C05C40F2F802C2F20002D054E1
:10292000086801300860DFE740F2B461C2F20001DC
:1029300000201590086040F2F800C2F200001490E8
:10294000FFF776F91498FDF7F2FC0146149800F0B1
:10295000BDFA1498FDF7BAFCFFF700FA0A201790A9
:1029600000F090FA159840F24471C2F2000108603C
:10297000FFF70AFA3790379A40F2B860C2F20000C7
:10298000169043F6FF21C0F60001FDF789FCFFF722
:102990007BF815990846FFF7CFF81698FFF748F926
:1029A0001698FDF7C4FC0146169800F08FFA1798A8
:1029B00000F068FA40F2C260C2F2000043F6523101
:1029C000C0F60001FDF78FFCFFE740F2C260C2F2E3
:1029D000000043F63431C0F60001FDF7C7FC0028C3
:1029E00040F0CB80FFE70A20119000F04BFA43F64D
:1029F0003430C0F6000010900E2100F067FA00217C
:102A000013910846FFF798F81098FFF711F91198FD
:102A100000F038FA43F6EA20C0F6000012900C21CC
:102A200000F054FA13990120FFF786F81298FFF787
:102A3000FFF8139840F24471C2F20001086040F2BE
:102A4000C260C2F2000043F65231C0F60001FDF749
:102A50004AFCFFE740F24470C2F20000016840F215
:102A6000C260C2F20000405C2A2801D0FFE7F1E713
:102A700000203690FFE7369840F24471C2F2000120
:102A80000968884210DAFFE7369A40F2C260C2F263
:102A90000000805C40F27801C2F200018854FFE738
:102AA000369801303690E6E7FFE740F2B460C2F2B4
:102AB0000000016840F27800C2F20000405C2A2861
:102AC00013D0FFE740F2B461C2F200010B6840F29C
:102AD0007800C2F20000C05C40F2F802C2F20002CC
:102AE000D054086801300860DFE740F2B461C2F2F8
:102AF000000100200D90086040F2F800C2F20000D2
:102B00000C90FFF795F80C98FDF711FC01460C9816
:102B100000F0DCF90C98FDF7D9FBFFF71FF90A204C
:102B20000F9000F0AFF90D9840F24471C2F200012D
:102B30000860FFF7B3F840F27811C2F200010E917D
:102B40000870FEF7A1FF0D990846FEF7F5FF0E98F5
:102B50000078FFF73DF80E98007800F093F90F9891
:102B600000F090F940F2C260C2F2000043F6523128
:102B7000C0F60001FDF7B7FBFFE740F2C260C2F20A
:102B8000000043F60231C0F60001FDF7EFFB00281C
:102B900040F07681FFE70A20099000F073F943F6D0
:102BA0000230C0F6000008900B2100F08FF90021E0
:102BB0000B910846FEF7C0FF0898FFF739F809980F
:102BC00000F060F943F6EA20C0F600000A900C21FC
:102BD00000F07CF90B990120FEF7AEFF0A98FFF791
:102BE00027F80B9840F24471C2F20001086040F2ED
:102BF000C260C2F2000043F65231C0F60001FDF798
:102C000072FBFFE740F24470C2F20000016840F23C
:102C1000C260C2F20000405C2A2801D0FFE7F1E761
:102C200000203590FFE7359840F24471C2F2000170
:102C30000968884210DAFFE7359A40F2C260C2F2B2
:102C40000000805C40F27801C2F200018854FFE786
:102C5000359801303590E6E7FFE740F2B460C2F204
:102C60000000016840F27800C2F20000405C2A28AF
:102C700013D0FFE740F2B461C2F200010B6840F2EA
:102C80007800C2F20000C05C40F2F802C2F200021A
:102C9000D054086801300860DFE740F2B461C2F246
:102CA000000100200790086040F2F800C2F2000026
:102CB0000590FEF7BDFF0598FDF739FB0146059825
:102CC00000F004F90A2000F0DDF843F6B320C0F666
:102CD00000000690082100F0F9F8FEF7D5FE0799EC
:102CE0000846FEF729FF0698FEF7A2FF079840F274
:102CF0004471C2F20001086040F2C260C2F20000FA
:102D000043F65231C0F60001FDF7EDFAFFE740F25D
:102D10004470C2F20000016840F2C260C2F20000DA
:102D2000405C2E2801D0FFE7F1E700203490FFE758
:102D3000349840F24471C2F200010968884210DA06
:102D4000FFE7349A40F2C260C2F20000805C40F2B9
:102D50007A11C2F200018854FFE7349801303490B0
:102D6000E6E7FFE740F2B460C2F20000016840F21B
:102D70007A10C2F20000405C2E2813D0FFE740F228
:102D8000B461C2F200010B6840F27A10C2F2000096
:102D9000C05C40F2FA12C2F20002D054086801305E
:102DA0000860DFE740F2B461C2F200010020049045
:102DB0000860FEF769FE40F2FA10C2F200000390CC
:102DC000FEF736FF0398FDF7B2FA0146039800F0CC
:102DD0007DF8049840F24471C2F2000108600A20B4
:102DE00000F050F804983390FFE73398029040F2D7
:102DF000FA10C2F20000FDF769FA01460298884213
:102E00001EDAFFE740F2F800C2F20000FDF75EFABA
:102E100033990844FEF7A2FFFEF740FF014640F257
:102E20007810C2F2000001700078339A40F28041BD
:102E3000C2F200018854FFE7339801303390D4E7A1
:102E400001200021FEF778FE40F28040C2F200002F
:102E50000190FEF7EDFE0198FDF769FA0146019831
:102E600000F034F80A2000F00DF840F2C260C2F21F
:102E7000000043F65231C0F60001FDF734FAFFE7D7
:102E80003EB080BD83B08DF80B0044F20440C4F224
:102E90000000019044F20040C4F200000090FFE7FF
:102EA000009800780006002801D4FFE7F8E79DF8B5
:102EB0000B0001990860FFE7009800688009C007CF
:102EC00008B1FFE7F8E703B07047000080B584B0B1
:102ED0000390029100200190FFE701980299884237
:102EE0000ADAFFE703980199405CFFF7CBFFFFE7A1
:102EF000019801300190F0E704B080BD81B044F248
:102F00000440C4F2000000900098006840F2447150
:102F1000C2F200010B6840F2C262C2F20002D05459
:102F200008680130086001B07047000080B586B0C5
:102F30008DF817000491FEF765FD9DF8170000F06D
:102F40000102012002900A210391FEF7F5FB02998C
:102F50009DF81700C0F340020846FEF7EDFB02980B
:102F60009DF81710C1F3800200210091FEF7E4FBE9
:102F700000989DF81710C1F3C0020821FEF7DCFB92
:102F800002989DF81710C1F300120F21FEF7D4FB31
:102F900002989DF81710C1F340120E21FEF7CCFBEA
:102FA00000989DF81710C1F380120921FEF7C4FBA9
:102FB000009803999DF81720D209FEF7BDFB0498ED
:102FC000FEF7D6FA0398FFF759F80098029A0B21FA
:102FD000FEF7B2FB0098029A0C210191FEF7ACFBC0
:102FE0000398FFF74BF8009A01991046FEF7A4FBEF
:102FF0000520FFF743F800980199029AFEF79CFB21
:103000000398FFF73BF806B080BD000080B586B09E
:103010008DF817000491FEF7F5FC9DF8170000F0FD
:103020000102012002900A210391FEF785FB02991B
:103030009DF81700C0F340020846FEF77DFB02989A
:103040009DF81710C1F3800200210091FEF774FB78
:1030500000989DF81710C1F3C0020821FEF76CFB21
:1030600002989DF81710C1F300120F21FEF764FBC0
:1030700002989DF81710C1F340120E21FEF75CFB79
:1030800000989DF81710C1F380120921FEF754FB38
:10309000009803999DF81720D209FEF74DFB04987C
:1030A000FEF766FA0398FEF7E9FF0098029A0B21F3
:1030B000FEF742FB0098029A0C210191FEF73CFBBF
:1030C0000398FEF7DBFF009A01991046FEF734FBE8
:1030D0000520FEF7D3FF00980199029AFEF72CFB1A
:1030E0000398FEF7CBFF06B080BD000080B584B02A
:1030F00003900291FEF786FC00200190FFE7019803
:1031000000900398FDF713F90146009888420ED20B
:10311000FFE703980199405C0299FFF707FF0298C7
:1031200001300290FFE7019801300190E7E7029833
:1031300040F2B441C2F2000141F8200004B080BD69
:1031400080B582B0002000900190FEF789FAFEF76A
:1031500045FFFEF7A9FFFEF79FFAFEF767FBFEF7B4
:10316000A9FC00990846FEF7E7FC43F6F720C0F6F5
:103170000000FEF75DFDFFE7FEF7E4FFFCE75FEA16
:10318000400C08BF91F0000F4FEA8C234FEAC12298
:1031900043EA51514FEA1C5018BF00F5F0404FEA86
:1031A000300018BF41F000415FEA6C5C00F02980FC
:1031B000BCF1FF3F08BF40F080407047130C06BFD2
:1031C00012044FF0100C4FF0000C130E04BF12024B
:1031D0000CF1080C130F04BF12010CF1040C930F37
:1031E00004BF92000CF1020CD30F04BF52000CF18B
:1031F000010C11464FF00002A0F11F00A0EB0C00E3
:10320000704711F0004F08BF704731F000413FF4A4
:10321000D5AF0B0C06BF09044FF0100C4FF0000C9B
:103220000B0E04BF09020CF1080C0B0F04BF0901BF
:103230000CF1040C8B0F04BF89000CF1020CCB0FB6
:1032400004BF49000CF1010CCCF1200322FA03F376
:1032500041EA030102FA0CF2A0EB0C0000F10100BC
:103260007047000023F07F4720F07F4C80EA030086
:1032700000F00040ACEB070303F57C5303F1FF03C0
:103280002DE9804909B44FEA144324EA03484FEA80
:10329000154B25EA0B4E0FF2042606EB13273E785A
:1032A00003FB0667C7F5000707FB06F64FEAD6469D
:1032B00006F102064FEA543707FB066CCCF1005CBE
:1032C0004FEA1C472CEA074C0CFB06F507FB06F4FB
:1032D00004EB15464FEA961649085FEA320234BFFE
:1032E00000204FF000404FEAD13706FB07FC4FEAC1
:1032F0001C4C0CFB0BF7D21B03FB0CF761EB07011B
:103300000CFB0EF7B0EB074072EB17420CFB08F713
:1033100034BFA2EB0742B2EB074261EB17414FEA21
:103320000C444FEA910706FB07FC4FEA1C4C0CFBD0
:103330000BF7B0EBC74072EB573203FB0CF734BF0F
:10334000A2EBC742B2EBC74261EB57310CFB0EF761
:10335000B0EBC70072EB57720CFB08F734BFA2EB5F
:10336000C702B2EBC70261EB57714FEA816141EAD4
:1033700092114FEA826242EA90124FEA806004EBB7
:10338000CC04039F4FEAD13706FB07FC4FEA1C4CE5
:103390000CFB0BF7D21B03FB0CF761EB07010CFBDB
:1033A0000EF7B0EB074072EB17420CFB08F734BF87
:1033B000A2EB0742B2EB074261EB17414FEA8C5593
:1033C00004EB9C244FEA910706FB07FC4FEA1C4CD8
:1033D0000CFB0BF7B0EBC74072EB573203FB0CF75B
:1033E00034BFA2EBC742B2EBC74261EB57310CFBD3
:1033F0000EF7B0EBC70072EB57720CFB08F734BF47
:10340000A2EBC702B2EBC70261EB57714FEA8161D1
:1034100041EA92114FEA826242EA90124FEA8060DA
:1034200015EB4C2544F100044FEAD13706FB07FCAD
:103430004FEA1C4C0CFB0BF7D21B03FB0CF761EBA8
:1034400007010CFB0EF7B0EB074072EB17420CFBC9
:1034500008F734BFA2EB0742B2EB074261EB17411A
:103460004FEA813141EA92414FEA823242EA904288
:103470004FEA80304FEA0C7615EB1C1544F100043E
:1034800048EA03434EEA0B484FF0000EB2EB080C3B
:1034900071EB030724BF624639464EEB0E0E4FF028
:1034A000000B0018524149414BEB0B0BB2EB080CDF
:1034B00071EB03077BF1000B24BF624639464EEBEC
:1034C0000E0E4FF0000B0018524149414BEB0B0B15
:1034D000B2EB080C71EB03077BF1000B24BF6246D3
:1034E00039464EEB0E0E51EA020718BF46F00106B0
:1034F00016EB0E7655F1000254F1000103D5BDE83C
:103500008901BDE80088BDE88901BDE80048B61919
:10351000524141EB0101A3F10103704780807F7E9E
:103520007D7C7B7A79787776767574737271717039
:103530006F6E6E6D6C6C6B6A6A69686867666665EB
:103540006464636362616160605F5F5E5E5D5D5C79
:103550005C5B5B5A5A5959585857575656555555EA
:103560005454535352525251515050504F4F4F4E4A
:103570004E4D4D4D4C4C4C4B4B4B4A4A4A49494998
:1035800048484847474747464646454545444444DA
:103590004443434343424242424141419C46002B03
:1035A00030D477002BD04FEA37071CB503B44FF067
:1035B00010004FF01001BAF1000F06D0BCF1000F5F
:1035C000DCBF40F0080040F008014FF000000FBCE5
:1035D000BDE810400BF1010BBBF1010F08BF5FEA22
:1035E000170722BF12F1010211F101014FF0004152
:1035F00043F1000300F0004043EA00007047F9D3B4
:103600005708D0E746EA06464FEA164613F1400F40
:103610001FDD13F1200FDFBF16430A4600212033C0
:103620005B42BED0C3F1200746EA06464FEA164683
:1036300002FA07F746EA070622FA03F2C3F1200767
:1036400001FA07F742EA070221FA03F14FF00003FB
:10365000A7E746EA020646EA06464FEA164646EA63
:103660000106BCBF46EA0646360C4FF000034FF099
:1036700000024FF0000194E72DE9804C70B49A46A7
:10368000934691E8380007C831EA400C48BF34EA55
:10369000430C03D5FFF7E6FDFFF780FFF0BCBDE864
:1036A000008C2DE9804C70B49A46934691E838001E
:1036B00007C810F0804F08BF13F0804F03D100F00F
:1036C00005F8FFF76BFFF0BCBDE8008C20F07F47EA
:1036D00023F07F4C80EA030000F0004007EB0C036E
:1036E000A3F57C53A3F1FE0392F0000F00F0B3802A
:1036F00095F0000F00F077802DE901494FEA114065
:1037000021EA00484FEA144624EA064700FB06FC7B
:1037100008FB06F607FB08F818EB06484CEB164CBE
:1037200000FB07F718EB07484CEB17404FEA124B2A
:1037300022EA0B4E4FEA154625EA06470BFB06FC2C
:103740000EFB06F607FB0EFE1EEB064E4CEB164C70
:103750000BFB07F71EEB074E4CEB174B18EB0B0858
:1037600040F1000018EB0E0B58EB000840F1000090
:103770008F1A4FF000014FF000063CBFC943661B93
:1037800014BFB5EB040C00213CBFC943F61B4FEA44
:10379000174427EA04454FEA1C472CEA074C04FB70
:1037A000076205FB07F70CFB05F616EB074642EB35
:1037B000174204FB0CFC16EB0C4642EB1C421BEBC5
:1037C000060658EB020241414EEA8E0E46EA9E067C
:1037D00001D5BDE80189B619524141EB0101A3F1C0
:1037E0000103BDE801894FEA144524EA05464FEA82
:1037F000114721EA074C05FB07F406FB07F70CFB12
:1038000006F111EB074144EB174405FB0CFC11EBEF
:103810000C4144EB1C444FEA124722EA074C05FBDB
:1038200007F206FB07F70CFB06F616EB074642EB22
:10383000174205FB0CFC16EB0C4642EB1C456A18C4
:1038400054F1000148BF7047B619524141EB0101E4
:10385000A3F10103704795F0000F37D04FEA1142F2
:1038600021EA02464FEA144724EA074C02FB07F11B
:1038700006FB07F70CFB06F414EB074441EB17417A
:1038800002FB0CFC14EB0C4441EB1C414FEA1547C6
:1038900025EA074C02FB07F506FB07F70CFB06F6CB
:1038A00016EB074645EB174502FB0CFC16EB0C46E6
:1038B00045EB1C42121951F1000148BF7047B6197F
:1038C000524141EB0101A3F1010370474FEA144556
:1038D00024EA05464FEA114721EA074C05FB07F1A8
:1038E00006FB07F70CFB06F212EB074241EB174110
:1038F00005FB0CFC12EB0C4251EB1C414FF0000697
:1039000048BF7047921841EB0101A3F101037047D2
:10391000490050EAC12018BF04204A0D18BF40F0EA
:10392000010040F2FF72B2EB515F08BF40F00200AD
:10393000012808BF0520704730380A2801D201202D
:10394000704700207047000010B500290AD00878A1
:10395000002807D005487844FCF708FD002801D06E
:10396000002010BD0248784410BD00001E02000077
:103970001602000010B500290AD00878002807D0E8
:1039800005487844FCF7F2FC002801D0002010BD67
:103990000248784410BD000002030000FA02000053
:1039A000FDF798B9FDF7CCBA000000000000000058
:1039B0003031323334353637383941424344454665
:1039C000403058003031323334353637383961625F
:1039D0006364656640307800040000080000000061
:1039E000000000020001000010303132333435365F
:1039F000373839616263646566787000303132331C
:103A00003435363738394142434445465850000032
:103A100002400000000000A000000000054000007F
:103A2000000000C8000000000C4000000000409CA6
:103A300000000000194000000020BCBE0000000093
:103A400034400000BFC91B8E00000004B5400000D8
:103A5000504BCFD06607E2CF010000006C41000060
:103A60003E8251AADFEEA73401000000D9420000D7
:103A7000DCB5A0E23A301F97FFFFFFFFB44500001E
:103A8000FD25A0C8E9A3C14FFFFFFFFFFF3F0000D6
:103A90000000008000000000FF3F000000000080E8
:103AA00000000000577269746520737472696E6754
:103AB0003A20004C656E6774683A2000577269744A
:103AC0006520636861723A20005772697465206EE0
:103AD000756D6265723A200057726974652063687B
:103AE000617261637465723A20004174206164649C
:103AF000726573733A200057454C434F4D4500257E
:103B000064005265616420737472696E6700577255
:103B100069746520737472696E6700526561642010
:103B20006E756D626572005772697465206E756D91
:103B300062657200526561642063686172616374DA
:103B4000657200577269746520636861726163749D
:103B500065720000A03C0008000000201800000072
:103B600050010008B83C000818000020380D000083
:103B7000700100081001000043000000F8FFFFFF83
:103B80000040404040404040404041414141414070
:103B90004040404040404040404040404040404025
:103BA00040050202020202020202020202020202B4
:103BB00002202020202020202020200202020202B9
:103BC0000202909090909090101010101010101011
:103BD000101010101010101010101010020202021D
:103BE0000202888888888888080808080808080861
:103BF000080808080808080808080808020202025D
:103C00004000000000000000000000000000000074
:103C100000000000000000000000000000000000A4
:103C20000000000000000000000000000000000094
:103C30000000000000000000000000000000000084
:103C40000000000000000000000000000000000074
:103C50000000000000000000000000000000000064
:103C60000000000000000000000000000000000054
:103C70000000000000000000000000000000000044
:103C8000000000001C00000043000000F8FFFFFFE0
:103C90000C0000000E0000000F0000002E000000CD
:103CA00004000140005400401054004014540040EF
:083CB000185400400000000060
:04000005080000ED02
:00000001FF
